:1000000047C066CC60C05FC05EC05DC05CC05BC006
:100010005AC059C058C057C056C082CD54C053C0F2
:1000200052C051C050C04FC04EC04DC04CC04BC05C
:100030004AC049C00002030507090A0C0E1011133B
:100040001516181A1C1D1F2122242527292A2C2D9C
:100050002F303234353638393B3C3E3F4042434402
:10006000454748494A4B4D4E4F50515253545556AF
:10007000575758595A5B5B5C5D5D5E5F5F606061BE
:1000800061616262626363636364646464646400A4
:1000900011241FBECFEFD4E0DEBFCDBF11E0A0E042
:1000A000B1E0EAEFFCE102C005900D92A438B1077F
:1000B000D9F714E0A4E8B1E001C01D92A336B1075E
:1000C000E1F720D518CE9CCF68E671E083DD843B54
:1000D000910520F0845B90404FEF01C041E08A35EC
:1000E000910530F024EB30E0B901681B790BCB01AE
:1000F000FC01EC5CFF4F8491849F802D11240895B6
:100100002F923F924F925F926F927F928F929F9227
:10011000AF92BF92CF92DF92EF92FF920F931F9315
:10012000DF93CF9300D000D00F92CDB7DEB77B0125
:100130008C0197FF0BC010950095F094E094E11CA2
:10014000F11C011D111D8FEF898302C0E1E0E983DD
:10015000C801B70120E432E44FE050E084DDA22E74
:10016000BB24CC24DD2480E1682E87E2782E812C0C
:10017000912CC801B701A401930175DD6A837B83CB
:100180008C839D83C601B5012CE330E040E050E054
:10019000E9DC1B012C01C601B50120EC3DEB40EF71
:1001A0005FEFE0DC6E0D7F1D801F911FA4019301A6
:1001B0005ADD220E311C411C511C6A817B818C81CD
:1001C0009D812CE330E040E050E0CCDC5B016C0131
:1001D000C201B10120E737E140E050E0C3DC7B0120
:1001E0008C01C601B50124E630E040E050E019DDA5
:1001F000E20EF31E041F151FF981FF3F41F4109515
:100200000095F094E094E11CF11C011D111DC80142
:10021000B7010F900F900F900F900F90CF91DF913B
:100220001F910F91FF90EF90DF90CF90BF90AF9014
:100230009F908F907F906F905F904F903F902F9006
:100240000895E1ECF3E0119283E0EC3CF807D9F774
:1002500008954F925F926F927F928F929F92AF928A
:10026000BF92CF92DF92EF92FF920F931F93DF9393
:10027000CF930F92CDB7DEB72C01C62E79018A013C
:1002800017FF07C022273327A9012E193F09400B6A
:10029000510BDD24D3946AE0862E912CA12CB12C35
:1002A00006C0CA01B901A5019401DDDCD3942A304E
:1002B000310541055105ACF717FDD3948C2D90E025
:1002C0009C012D0D311D213231050CF055C0480E19
:1002D000591E17FF0BC010950095F094E094E11C97
:1002E000F11C011D111D6FEF698301C019825201BC
:1002F0009AE0692E712C812C912CC801B701A401C0
:100300009301B1DC605DF50161935F018E2F84196B
:1003100079018A01121613061406150674F3F98181
:10032000FF3F49F4E82FFF27E7FDF095E40DF51DA9
:100330009DE290838F5FE82FFF27E7FDF095E40DA6
:10034000F51D10828150582F569540E0282F30E03F
:10035000842F90E0D201A80FB91F6C91F901E81B1E
:10036000F90BE40DF51D80818C9360834F5F54176A
:1003700078F78D2D8C0D01C081E20F90CF91DF9128
:100380001F910F91FF90EF90DF90CF90BF90AF90B3
:100390009F908F907F906F905F904F9008950F93F4
:1003A0001F939C01062FFA01DA010D900020E9F756
:1003B00011971A2F141B862F90E0810F911D813207
:1003C00091050CF011E2412F50E0C901800F911D01
:1003D000BF0172DC812F800F1F910F9108950F9341
:1003E0001F93CF93DF93EC0134DF682FCE01A80178
:1003F000D6DFDF91CF911F910F9108956F927F9279
:100400008F929F92AF92BF92CF92DF92EF92FF9224
:100410000F931F93CF93DF93EC01162F2115310516
:100420004105510521F448E051E0B9DF73C00023D4
:1004300059F012161306140615061CF480E091E01C
:100440000DC082E091E00AC01216130614061506CC
:100450001CF484E091E002C086E091E03C01690177
:100460007A0157FF08C0F094E094D094C094C11C66
:10047000D11CE11CF11CC701B60120E432E44FE0BD
:1004800050E0F1DB822E9924AA24BB24C501B401DB
:1004900020EC3DEB40EF5FEF65DB6C0D7D1D8E1DAD
:1004A0009F1D24E630E040E050E05CDB2CE330E0D0
:1004B00040E050E0B6DB002339F0E6EECE2EE4E17A
:1004C000DE2EE12CF12C06C070E9C72E7AE1D72E82
:1004D000E12CF12CC20ED31EE41EF51ECE01612FBD
:1004E000A501940104E111E07ADF682F80E1C816CC
:1004F00087E2D80680E0E80680E0F80630F4CE0116
:1005000020E030E0A901A5DE682FCE01A701960109
:10051000830165DFDF91CF911F910F91FF90EF90E5
:10052000DF90CF90BF90AF909F908F907F906F9013
:100530000895FF920F931F9301E08091C1038D32C4
:1005400009F000E0102F20E030E0A90114C0CA013A
:10055000B9012AE030E040E050E004DB2F2D30E02C
:1005600020533040442737FD4095542F260F371F26
:10057000481F591F1F5FE12FF0E0EF53FC4FF08041
:100580008F2D80538A3010F41B3008F3002321F0A4
:100590006FEF7FEFCB0104C061E070E080E090E09E
:1005A000E1DA1F910F91FF900895883108F56831C5
:1005B000F8F4482F46954695469550E0809587700B
:1005C00021E030E002C0220F331F8A95E2F7FA01E2
:1005D000EE0FFF1FE40FF51FA3E0EE0FFF1FAA951C
:1005E000E1F7E60FF11DE55AFC4F8081822B8083F5
:1005F0000895FF920F931F93DF93CF9300D000D005
:100600000F92CDB7DEB7182F81E0982F911B9983F9
:100610008A83812F8195880F8B831C821D830BE039
:10062000F02EF10E8BE06F2DC0DF0BE0011B8BE095
:10063000602FBBDF8F2D6BE0B8DF802F6BE0B5DF65
:100640001BE04BC0898187FD0AC08D8181508D835D
:100650008B818E5F8B8399818B81890F89838C81BC
:100660008F5F8C838A818E5F8A8399818A81890FCB
:1006700089838C816D81655F855F97DF8C816D815A
:10068000655F912F981B892F90DF8C819D81612F51
:10069000691B855F8ADF8C819D81612F691B912F8A
:1006A000981B892F82DF8D816C81655F855F7DDF7F
:1006B0008D816C81655F912F981B892F76DF8D81ED
:1006C0009C81612F691B855F70DF8D819C81612F0B
:1006D000691B912F981B892F68DF9C818D8198174A
:1006E0000CF4B0CF0F900F900F900F900F90CF9110
:1006F000DF911F910F91FF900895AF92BF92CF921B
:10070000DF92EF92FF920F931F93382F562F142FE3
:10071000A22FB0E0A61BB109B7FF03C0B095A19509
:10072000BF4FE12FF0E0E31BF109F7FF03C0F095A5
:10073000E195FF4F01E0EA17FB0714F000E006C067
:10074000812F122F282F832F352F582F131730F476
:10075000852F522F282F832F312F182FF12EF31A88
:10076000E22FF0E0E51BF109F7FF03C0F095E195FA
:10077000FF4FEE2E8F2D62E020DAD82EB52E5217C5
:1007800018F4AA24A39402C0AA24AA94C32E0EC0CB
:10079000002319F08B2D6C2D02C08C2D6B2D05DFE5
:1007A000DE18D7FE02C0BA0CDF0CC3941C1580F70C
:1007B0001F910F91FF90EF90DF90CF90BF90AF907F
:1007C0000895FF920F931F9301E08091C1038D3232
:1007D00009F000E0102F20E030E0A901E12FF0E067
:1007E000EF53FC4FF0808F2D80538A3028F5CA01DB
:1007F000B9012AE030E040E050E0B4D92F2D30E0DC
:1008000020533040442737FD4095542F260F371F83
:10081000481F591F1F5F1B3008F3002321F06FEFA3
:100820007FEFCB0104C061E070E080E090E09AD9F6
:100830001F910F91FF9008958F2D8E3259F3EDCFB8
:100840008091BF03882301F581EC93E066E171E0BC
:1008500045E050E023DA009731F481E08093BF0354
:1008600010927801089581EC93E06CE171E045E02D
:1008700050E014DA009709F00AC182E08093BF03C8
:1008800084E68093780108958091BE03882309F45B
:10089000FEC0809178018536E9F18636D8F484303F
:1008A00009F469C0853048F48230F1F1833008F0F2
:1008B00045C0813009F0EBC02DC0863009F482C0FC
:1008C000863008F462C0873009F480C0893009F0AE
:1008D000DEC080C08A3609F458C08B3648F48836AA
:1008E00069F1893608F047C0873609F0D0C01CC0CE
:1008F0008C3609F488C08C3608F472C08D3609F441
:1009000088C0883C09F0C3C0E1ECF3E080E090E0EF
:10091000DC01AFC00EDE6093AF037093B003809331
:10092000B1039093B20308954CDF6093A5037093D5
:10093000A6038093A7039093A80308958091C10311
:10094000833509F0A4C08091A5039091A603A091DE
:10095000A703B091A803B095A095909581959F4F5E
:10096000AF4FBF4F8093A5039093A603A093A70317
:10097000B093A803089525DF6093A9037093AA0399
:100980008093AB039093AC0308958091C1038735A6
:1009900009F07DC08091A9039091AA03A091AB03B7
:1009A000B091AC03B095A095909581959F4FAF4FB6
:1009B000BF4F8093A9039093AA03A093AB03B09376
:1009C000AC030895B6DD6093B3030895B2DD609380
:1009D000B4030895AEDD7093AE036093AD03089544
:1009E000A8DD4FEC51E0649F9001659F300D749F2E
:1009F000300D1124C9016AEF70E0ECD87093B60392
:100A00006093B503089595DD7093B8036093B703C1
:100A100008958FDD6093B9037093BA038093BB038D
:100A20009093BC03089534E0880F991FAA1FBB1F41
:100A30003A95D1F7322F3154363020F430E0275335
:100A400030400FC0322F3156363020F430E0275579
:100A5000304007C0322F30533A3058F430E0205342
:100A60003040442737FD4095542F820F931FA41F19
:100A7000B51F2191222321F033E0ED3CF30799F6D5
:100A800021E03091C003381320E02093BD03089586
:100A9000EF92FF920F931F93CF93DF93EC01E62F1A
:100AA000F0E0EE0FFF1FE05BFB4FE080FF2400E073
:100AB00010E0218130E040E050E064E0CADBFE015C
:100AC000E80FF11D9EE29083682F6F5F8AE0E816C1
:100AD000F1040105110534F4FE01E60FF11D80E378
:100AE00080836F5FCE01A8019701B3DB682FCE0131
:100AF00042E251E054DCDF91CF911F910F91FF90C2
:100B0000EF900895DF93CF93CDB7DEB763970FB61D
:100B1000F894DEBF0FBECDBF20E12BB988E08AB9C3
:100B200029988CE084B980916F00816080936F0078
:100B30008091810082608093810083E080936900CE
:100B400031E03DBB80E880BF10927B001EBC8DB5BC
:100B50008E7F8DBD84E58CBDE0918801F0E0EE0FC5
:100B6000FF1FEA59FE4F8081918190938B01809302
:100B70008A0110927E0080917C00806480937C00CA
:100B800080917A00866080937A0010927B00309387
:100B9000C50087E38093C40086E08093C200209361
:100BA000C10078948091C00087FF8EC00091C6007C
:100BB000909178019F3F21F4043209F085C010C064
:100BC000043271F0053230F40A3049F10D3009F089
:100BD00068C025C00A3299F00C3209F062C00AC020
:100BE0001092BE031092BF031092C00310927801BE
:100BF00028DB6AC08091C00380278093C00320DE79
:100C000020DB1092BE03809178018F5F8093780182
:100C10000A3209F059C088EC8093780155C010DE83
:100C20004FEF409378012091AD033091AE03809156
:100C3000D4039091D5038217930724F481E0809325
:100C4000E5030BC0281739071CF44093E50305C0E2
:100C50002817390711F41092E5038091BD0388230A
:100C600099F1ACECB3E0E5EAF3E089E101900D9293
:100C70008150E1F781E08093E6038091E703909152
:100C8000E8039093EA038093E9038091DC03909159
:100C9000DD0383309105C0F0109279011092EB03CF
:100CA00013C08091BE03E82FF0E0EF53FC4F0083A8
:100CB000983C29F09091C00390279093C0038A300C
:100CC00018F48F5F8093BE034C9925C081E0809318
:100CD000A3038091A403833330F11092A4035B9AA1
:100CE0008091BD038823F9F08091B3038823D9F064
:100CF000ADEEB3E0ECECF3E08AE001900D928150B0
:100D0000E1F781E08093EC031092F7031092E70380
:100D10001092E80308C08091A30381115B981092A0
:100D2000A3031092A40380918901823009F07AC054
:100D3000109289018091880190E0FC0125E0EE0F7E
:100D4000FF1F2A95E1F7E80FF91FE357FE4F88EFE1
:100D5000E82E83E0F82ED70180E090E02191203248
:100D6000E1F02223D1F02B3550F4822F90E003E004
:100D7000880F991F0A95E1F78852914010C0322FD1
:100D80003556393060F4822F90E013E0880F991FB8
:100D90001A95E1F78057914002C08FEF9FEF8D9336
:100DA0009D9304E0AA33B007C9F680E090E078E0B4
:100DB000A72ECC24CA944C01D7010D911D917D0121
:100DC00080917A01992787FD90958017910761F0AE
:100DD000BFEF0F3F1B0771F08AE394E0B80148E0D2
:100DE00050E079D700937A01AAE3B4E0F401ED5A18
:100DF000FD4F09C0EAE3F4E00A2D11920A95E9F7E4
:100E0000C0927A01F1CF8D918083B19614E0A23423
:100E1000B107C9F70894811C911C21E28216910444
:100E200059F6C0CE80918901813009F0BBCE109275
:100E300089018091A303882329F08091A4038F5F07
:100E40008093A4038091F70362E3ABD6992309F062
:100E5000F7C28091B303882311F05B9A04C08BB171
:100E600098E089278BB98091EC03882309F4E4C1C9
:100E7000E090CC03F090CD030091CE031091CF030E
:100E80002090D0033090D1034090D2035090D303F0
:100E9000A090ED03B090EE03C090EF03D090F0036C
:100EA0008091F1039091F203A091F303B091F403C8
:100EB00089839A83AB83BC83EA14FB040C051D056C
:100EC00091F4281639064A065B0669F4109242042A
:100ED0001092430410924404109245041092470467
:100EE00010924604A9C1C601B5016E0D7F1D801F79
:100EF000911F97FF07C090958095709561957F4FE2
:100F00008F4F9F4F20E834E84EE150E08AD6C90168
:100F1000865A9F4FD9D88D83C801B701F1D86E8307
:100F20007F8388879987C601B501EAD83B014C01C8
:100F3000C201B101E5D87B018C0169817A818B8185
:100F40009C81DED89B01AC012E193F09400B510B4F
:100F5000EE80FF80088519856E187F08800A910A47
:100F6000FD806F2D772767FD7095872F972FFAD516
:100F700024E630E040E050E076D619012A0162E034
:100F8000E62EF12C012D112DCC24C3940FC0C201EB
:100F9000B101A801970167D619012A01C401B30163
:100FA000A801970160D639014A01CC0CA201910138
:100FB00057FE07C022273327A90122193309440904
:100FC00055092F3F6FEF360760E0460760E0560790
:100FD000F0F6D401C30197FE07C088279927DC01EA
:100FE00086199709A809B9098F3FEFEF9E07E0E03E
:100FF000AE07E0E0BE0758F6C9822A873B874C87D8
:101000005D878E879F87A88BB98BC201B101A20132
:101010009101A8D55B016C01C401B301A401930146
:10102000A1D5E1E00FC052E0D694C794B794A7943D
:101030005A95D1F742E096958795779567954A95A9
:10104000D1F7EE0FE92EFF24002711272D2D33278E
:1010500044275527E20EF31E041F151F2FEFE2163B
:10106000F1040105110509F0F0F6ED838601750123
:10107000E60EF71E081F191FEE82FF8208871987E8
:1010800057016801D694C794B794A794A114B104EA
:10109000C104D10461F180E090E09B8B8A8B02C097
:1010A000570168016E817F8188859985A601950128
:1010B000B8D579018A01EA0CFB1C0C1D1D1D169583
:1010C0000795F794E794AE18BF08C00AD10A22E04A
:1010D000A216B104C104D10470F04A895B894F5F44
:1010E0005F4F5B8B4A8B4A315105D1F604C0EE80CD
:1010F000FF80088519856D81262F30E040E050E0A3
:10110000C801B7012FD56B017C01611571058105FF
:10111000910509F46AC08A859B85AC85BD850E85DD
:101120001F852889398980179107A207B307D8F04E
:10113000C901B80124E630E040E050E013D5A70132
:1011400096016FD5022F20E030E0590103C00894CA
:10115000A11CB11CC501B8D708171CF11AE5A116CE
:10116000B104A9F71EC06A857B858C859D8524E620
:1011700030E040E050E0F6D4A701960152D5A22E0F
:1011800000E010E002C00F5F1F4FC8019DD7A816F6
:101190001CF00A351105B9F72AE530E0201B310BA8
:1011A00001C09501611471048104910429F457FC74
:1011B0001FC08AE590E01EC0161417041804190415
:1011C0004CF457FC03C08AE590E00CC0C901825F73
:1011D0009E4F10C057FC04C0C901865A9F4F0AC0D9
:1011E0008EE091E0821B930B05C080E090E002C08E
:1011F0008EE091E09093470480934604C701B601C6
:1012000025E331E040E050E0ADD428EE33E040E0AB
:1012100050E007D579018A016981262F30E040E04E
:1012200050E0C801B7019ED4609342047093430418
:101230008093440490934504A8E4AA2EA4E0BA2E17
:10124000FBE76F2EF1E07F2EEFE72E2EE1E03E2E42
:1012500080E594E0CC244C0180917C00807F8093D9
:101260007C0080917C008C2980937C0080917A00A6
:10127000806A80937A0080917A00806480937A00FB
:1012800080917A0084FFFCCF80917A008061809306
:101290007A0080917A008F7580937A00609178004F
:1012A00070917900D5016D937D935D0180E090E0B0
:1012B00026E331E040E050E055D42AE030E040E061
:1012C00050E0AFD479018A01F30121913F0130E070
:1012D00040E050E0C801B70145D4D1012D911D0176
:1012E00030E040E050E09DD479018A017AE0169523
:1012F0000795F794E7947A95D1F7E982FA820B8300
:101300001C838E2D90E0982F8827990F990FA0E0CD
:10131000B0E079018A01E81AF90A0A0B1B0BC8012F
:10132000B70124E630E040E050E01CD42AE0969576
:101330008795779567952A95D1F7D4016C93E981C4
:101340001196EC931197C39492E0E92EF12C8E0C38
:101350009F1C0C2D043009F07FCF80915004909198
:1013600051049093590480935804809152049091B1
:10137000530490935B0480935A049091550484E63F
:10138000989FC001112420915404820F911D11E0F7
:10139000853F910798F48937910598F0AC0148573B
:1013A000504024E630E0429FC001439F900D529F81
:1013B000900D11246CE771E00DD405C064E670E077
:1013C00002C060E070E0562F60935C042091DC0363
:1013D0003091DD0381E090E0293C310510F480E09C
:1013E00090E090935E0480935D049091590484E6AC
:1013F000989FC001112440915804840F911D41E031
:1014000063E0883E960708F040E040935F04109246
:10141000600481E0523308F080E08093610423305F
:10142000310538F48091EB038A3018F48F5F809394
:10143000EB038091EB038A3019F481E0809379010A
:101440008091F7038F5F8093F7038091F7038233D6
:1014500078F01092F7038091E7038F5F8093E703A2
:101460008091620490E00196817090708093620494
:101470008091E7038C3338F01092E7038091E80302
:101480008F5F8093E8038091E8038C3310F0109213
:10149000E8038EEAE82E81E0F82E80E090E000E399
:1014A000C02E5C016EC11192EE15FF05E1F78A2D89
:1014B000AA2081F58DE891E061E044E251E06FD728
:1014C00080915F04882321F080916204882321F0B9
:1014D0008DE891E060E0DCDA80915C04882331F0F3
:1014E0008DE891E06CE047E251E059D78DE891E05A
:1014F00062E149E251E053D7682F6E5F2091CC033F
:101500003091CD034091CE035091CF038DE891E00F
:1015100001E062C0813009F061C090915B0484E613
:10152000989FC001112420915A04820F911D0097A9
:1015300031F08EEA91E061E04BE251E030D79091DA
:101540005B0484E6989FC001112420915A04820F05
:10155000911D009761F080916004882321F08091B3
:101560006204882321F08EEA91E061E091DA8091B3
:101570006104882321F080916204882369F020911E
:101580005C04222349F030E040E050E08EEA91E034
:101590006CE00EE211E023D78091DA03882351F04A
:1015A0002091DB0330E040E050E08EEA91E062E120
:1015B00050D606C08EEA91E062E140E351E0EFD6FA
:1015C0002091D0033091D1034091D2035091D303A5
:1015D0008EEA91E065E100E011D7C3C0823061F589
:1015E00080917901882309F4BCC08091EC038823A1
:1015F000C1F08FEC91E060E042E351E0D0D68FEC97
:1016000091E062E044E351E0CAD620914204309177
:10161000430440914404509145048FEC91E065E00F
:1016200092C080916204882309F49BC08FEC91E002
:101630006AE047E351E094C0833009F042C080EF94
:1016400091E060E043E451E0AAD68091E503813067
:1016500031F480EF91E065E047E451E00FC08F3F47
:1016600031F480EF91E065E049E451E007C0882360
:1016700031F480EF91E065E04BE451E090D62091A9
:10168000D4033091D5038091F5039091F603281B84
:10169000390B442737FD4095542F80EF91E067E0E8
:1016A000D8D580EF91E06AE14DE451E078D6209101
:1016B000DE033091DF0340E050E080EF91E06EE127
:1016C00042C0843009F041C080915D0490915E0475
:1016D000009721F080916204882351F02091DC036F
:1016E0003091DD0340E050E081E192E060E0B1D56F
:1016F00081E192E065E041E551E051D68091E80357
:101700008A3020F4C0922C026CE101C06BE1209180
:10171000E80330E040E050E081E192E006E511E0CE
:101720005ED6682F8091E7038A3030F4E62FF0E030
:10173000EF5EFD4FC0826F5F2091E70330E040E035
:1017400050E081E192E085D50CC082E392E060E058
:1017500048E551E024D682E392E068E149E551E0B2
:101760001ED60894A11CB11C81E290E0E80EF91E7F
:1017700096E0A916B10429F423E733E080E090E075
:1017800016C0F50115E0EE0FFF1F1A95E1F7EA0DFF
:10179000FB1DE357FE4F87CE1192E217F307E1F7E7
:1017A00001969F01285E3F4F8330910569F0FC014F
:1017B000EE0FFF1FE80FF91FA3E0EE0FFF1FAA9522
:1017C000E1F7E55AFC4FE8CFE0904604F09047047B
:1017D0008091DE039091DF03E81AF90A8BE009D7C4
:1017E0008091420490914304A0914404B091450437
:1017F0008A309105A105B10518F482E0FAD6D2C964
:101800008091DC039091DD038330910520F080917D
:10181000B303882351F485E065E041E121E16DD710
:1018200085E061E141E125E051C0C701865A9F4F43
:101830004BD4082FC70148D4E82F402F552747FD28
:101840005095F3E0440F551FFA95E1F724E630E098
:10185000CA01B901D3D18B018E2F992787FD9095AD
:10186000E3E0880F991FEA95E1F7B901C7D15B0161
:10187000602F7BE0C72ECA0C8BE0E82EE01A655F74
:101880008A194C2D2E2D39D752E0852E912CC80166
:10189000B401B4D1709561957F4F462F455FC50166
:1018A000B401ACD1709561957F4F262F255F8C2DAB
:1018B0006E2D23D7C801B401A1D1462F455FC501C4
:1018C000B4019CD1262F255F8C2D6E2D16D76AC9A9
:1018D0001F920F920FB60F9211242F933F934F93A5
:1018E0005F936F937F938F939F93AF93BF93EF9388
:1018F000FF93109285001092840088E28A95F1F798
:1019000080918401909185014A99F2C0009709F471
:101910007FC080918701813021F0823009F078C04A
:101920004AC090918801E8E1EA95F1F7292F30E06B
:10193000F90175E0EE0FFF1F7A95E1F7E20FF31F53
:10194000E357FE4FA0918C0181E2A89FD0011124A2
:10195000AD5ABD4F989FC001112482559E4F2191D1
:10196000203221F0222311F0219A02C02198000098
:101970002D912EBD000000000000000000000000BE
:101980000000000000000000000000000000000057
:10199000000000000000E817F90709F70000000048
:1019A0000000000000000000000000000000000037
:1019B0001EBC21982DC083E191E00197F1F700C092
:1019C0000000E0918C01F0E0E55AFC4F83E090814B
:1019D0009EBD219A000000000000000000000000F1
:1019E00000000000000000000000000000000000F7
:1019F00000000000000000000000000000000000E7
:101A0000000081507896882311F7219800001EBCB1
:101A100010928701809184019091850101969093A5
:101A20008501809384018E36910511F421E004C074
:101A30008F36910519F422E02093890120918A01C3
:101A400030918B0182179307A0F040916301509170
:101A500064018417950768F441E040938701821B75
:101A600080938C0190916501923009F048C0869571
:101A700031C020916301309164018217930769F5A9
:101A800082E0809389018091880190E0019666E070
:101A900070E0B4D080938801FC01EE0FFF1FEA597B
:101AA000FE4F2081318130938B0120938A018E5823
:101AB0009E4FFC0180818093650190E053E0880F88
:101AC000991F5A95E1F7820F931F909364018093B9
:101AD000630181E080938C0112C09C012956304043
:101AE0002831310560F422E0209387018956F2CF36
:101AF000893C910520F01092850110928401FF919C
:101B0000EF91BF91AF919F918F917F916F915F9175
:101B10004F913F912F910F900FBE0F901F901895EE
:101B20001F920F920FB60F9211242F933F938F9312
:101B30009F9380918401909185012091860130E0EE
:101B40002817390721F42BB138E023272BB98093CC
:101B500086019F918F913F912F910F900FBE0F9013
:101B60001F901895629FD001739FF001829FE00D36
:101B7000F11D649FE00DF11D929FF00D839FF00D0C
:101B8000749FF00D659FF00D9927729FB00DE11DB8
:101B9000F91F639FB00DE11DF91FBD01CF01112495
:101BA0000895991B79E004C0991F961708F0961BB9
:101BB000881F7A95C9F78095089587FB082E062619
:101BC00087FD819567FD6195ECDF0EF4919507FC2B
:101BD00081950895AA1BBB1B51E107C0AA1FBB1F1B
:101BE000A617B70710F0A61BB70B881F991F5A95A9
:101BF000A9F780959095BC01CD01089597FB092E1A
:101C000007260AD077FD04D0E5DF06D000201AF4BD
:101C1000709561957F4F0895F6F7909581959F4F48
:101C20000895A1E21A2EAA1BBB1BFD010DC0AA1F1D
:101C3000BB1FEE1FFF1FA217B307E407F50720F035
:101C4000A21BB30BE40BF50B661F771F881F991FB0
:101C50001A9469F760957095809590959B01AC01F9
:101C6000BD01CF01089597FB092E05260ED057FD23
:101C700004D0D7DF0AD0001C38F450954095309539
:101C800021953F4F4F4F5F4F0895F6F79095809500
:101C9000709561957F4F8F4F9F4F0895FB01DC0139
:101CA0004150504030F08D910190801919F400207E
:101CB000B9F7881B990B0895FB01DC014150504096
:101CC00048F001900D920020C9F701C01D924150CB
:101CD0005040E0F70895DC01CB01FC01F999FECFFB
:101CE00006C0F2BDE1BDF89A319600B40D924150A4
:0A1CF0005040B8F70895F894FFCFB4
:101CFA004E005300450057002D2D2E2D2D2D2D2D34
:101D0A002D2D3F002E004750474741004750524D66
:101D1A00430056006A3100690068006A32002500F3
:101D2A002D0066004D54004E4F20484F4D4520501F
:101D3A004F5300414C54006E006D006F00484447F9
:101D4A00004B4D2F48003A00004650564C522E4345
:101D5A004F4D0002000232004200AA00CD00FF00EF
:101D6A001801010102010102FF01FF010101010144
:041D7A00010601005D
:00000001FF
