:1000000047C02CCC60C05FC05EC05DC05CC05BC040
:100010005AC059C058C057C056C048CD54C053C02C
:1000200052C051C050C04FC04EC04DC04CC04BC05C
:100030004AC049C00002030507090A0C0E1011133B
:100040001516181A1C1D1F2122242527292A2C2D9C
:100050002F303234353638393B3C3E3F4042434402
:10006000454748494A4B4D4E4F50515253545556AF
:10007000575758595A5B5B5C5D5D5E5F5F606061BE
:1000800061616262626363636364646464646400A4
:1000900011241FBECFEFD4E0DEBFCDBF11E0A0E042
:1000A000B1E0E6E8FCE102C005900D92A238B1078C
:1000B000D9F714E0A2E8B1E001C01D92AE35B10756
:1000C000E1F720D5DECD9CCF68E671E049DD843BC9
:1000D000910520F0845B90404FEF01C041E08A35EC
:1000E000910530F024EB30E0B901681B790BCB01AE
:1000F000FC01EC5CFF4F8491849F802D11240895B6
:100100002F923F924F925F926F927F928F929F9227
:10011000AF92BF92CF92DF92EF92FF920F931F9315
:10012000DF93CF9300D000D00F92CDB7DEB77B0125
:100130008C0197FF0BC010950095F094E094E11CA2
:10014000F11C011D111D8FEF898302C0E1E0E983DD
:10015000C801B70120E432E44FE050E04ADDA22EAE
:10016000BB24CC24DD2480E1682E87E2782E812C0C
:10017000912CC801B701A40193013BDD6A837B8305
:100180008C839D83C601B5012CE330E040E050E054
:10019000AFDC1B012C01C601B50120EC3DEB40EFAB
:1001A0005FEFA6DC6E0D7F1D801F911FA4019301E0
:1001B00020DD220E311C411C511C6A817B818C8107
:1001C0009D812CE330E040E050E092DC5B016C016B
:1001D000C201B10120E737E140E050E089DC7B015A
:1001E0008C01C601B50124E630E040E050E0DFDCE0
:1001F000E20EF31E041F151FF981FF3F41F4109515
:100200000095F094E094E11CF11C011D111DC80142
:10021000B7010F900F900F900F900F90CF91DF913B
:100220001F910F91FF90EF90DF90CF90BF90AF9014
:100230009F908F907F906F905F904F903F902F9006
:100240000895EFEBF3E0119283E0EA3CF807D9F769
:1002500008954F925F926F927F928F929F92AF928A
:10026000BF92CF92DF92EF92FF920F931F93DF9393
:10027000CF930F92CDB7DEB72C01C62E79018A013C
:1002800017FF07C022273327A9012E193F09400B6A
:10029000510BDD24D3946AE0862E912CA12CB12C35
:1002A00006C0CA01B901A5019401A3DCD3942A3088
:1002B000310541055105ACF717FDD3948C2D90E025
:1002C0009C012D0D311D213231050CF055C0480E19
:1002D000591E17FF0BC010950095F094E094E11C97
:1002E000F11C011D111D6FEF698301C019825201BC
:1002F0009AE0692E712C812C912CC801B701A401C0
:10030000930177DC605DF50161935F018E2F8419A5
:1003100079018A01121613061406150674F3F98181
:10032000FF3F49F4E82FFF27E7FDF095E40DF51DA9
:100330009DE290838F5FE82FFF27E7FDF095E40DA6
:10034000F51D10828150582F569540E0282F30E03F
:10035000842F90E0D201A80FB91F6C91F901E81B1E
:10036000F90BE40DF51D80818C9360834F5F54176A
:1003700078F78D2D8C0D01C081E20F90CF91DF9128
:100380001F910F91FF90EF90DF90CF90BF90AF90B3
:100390009F908F907F906F905F904F9008950F93F4
:1003A0001F939C01062FFA01DA010D900020E9F756
:1003B00011971A2F141B862F90E0810F911D813207
:1003C00091050CF011E2412F50E0C901800F911D01
:1003D000BF0138DC812F800F1F910F9108950F937B
:1003E0001F93CF93DF93EC0134DF682FCE01A80178
:1003F000D6DFDF91CF911F910F9108956F927F9279
:100400008F929F92AF92BF92CF92DF92EF92FF9224
:100410000F931F93CF93DF93EC01162F2115310516
:100420004105510521F448E051E0B9DF73C00023D4
:1004300059F012161306140615061CF480E091E01C
:100440000DC082E091E00AC01216130614061506CC
:100450001CF484E091E002C086E091E03C01690177
:100460007A0157FF08C0F094E094D094C094C11C66
:10047000D11CE11CF11CC701B60120E432E44FE0BD
:1004800050E0B7DB822E9924AA24BB24C501B40115
:1004900020EC3DEB40EF5FEF2BDB6C0D7D1D8E1DE7
:1004A0009F1D24E630E040E050E022DB2CE330E00A
:1004B00040E050E07CDB002339F0E6EECE2EE4E1B4
:1004C000DE2EE12CF12C06C070E9C72E7AE1D72E82
:1004D000E12CF12CC20ED31EE41EF51ECE01612FBD
:1004E000A501940104E111E07ADF682F80E1C816CC
:1004F00087E2D80680E0E80680E0F80630F4CE0116
:1005000020E030E0A901A5DE682FCE01A701960109
:10051000830165DFDF91CF911F910F91FF90EF90E5
:10052000DF90CF90BF90AF909F908F907F906F9013
:100530000895FF920F931F9301E08091BF038D32C6
:1005400009F000E0102F20E030E0A90114C0CA013A
:10055000B9012AE030E040E050E0CADA2F2D30E067
:1005600020533040442737FD4095542F260F371F26
:10057000481F591F1F5FE12FF0E0E154FC4FF0804E
:100580008F2D80538A3010F41B3008F3002321F0A4
:100590006FEF7FEFCB0104C061E070E080E090E09E
:1005A000A7DA1F910F91FF900895883108F56831FF
:1005B000F8F4482F46954695469550E0809587700B
:1005C00021E030E002C0220F331F8A95E2F7FA01E2
:1005D000EE0FFF1FE40FF51FA3E0EE0FFF1FAA951C
:1005E000E1F7E60FF11DE75AFC4F8081822B8083F3
:1005F0000895FF920F931F93DF93CF9300D000D005
:100600000F92CDB7DEB7182F81E0982F911B9983F9
:100610008A83812F8195880F8B831C821D830BE039
:10062000F02EF10E8BE06F2DC0DF0BE0011B8BE095
:10063000602FBBDF8F2D6BE0B8DF802F6BE0B5DF65
:100640001BE04BC0898187FD0AC08D8181508D835D
:100650008B818E5F8B8399818B81890F89838C81BC
:100660008F5F8C838A818E5F8A8399818A81890FCB
:1006700089838C816D81655F855F97DF8C816D815A
:10068000655F912F981B892F90DF8C819D81612F51
:10069000691B855F8ADF8C819D81612F691B912F8A
:1006A000981B892F82DF8D816C81655F855F7DDF7F
:1006B0008D816C81655F912F981B892F76DF8D81ED
:1006C0009C81612F691B855F70DF8D819C81612F0B
:1006D000691B912F981B892F68DF9C818D8198174A
:1006E0000CF4B0CF0F900F900F900F900F90CF9110
:1006F000DF911F910F91FF900895AF92BF92CF921B
:10070000DF92EF92FF920F931F93382F562F142FE3
:10071000A22FB0E0A61BB109B7FF03C0B095A19509
:10072000BF4FE12FF0E0E31BF109F7FF03C0F095A5
:10073000E195FF4F01E0EA17FB0714F000E006C067
:10074000812F122F282F832F352F582F131730F476
:10075000852F522F282F832F312F182FF12EF31A88
:10076000E22FF0E0E51BF109F7FF03C0F095E195FA
:10077000FF4FEE2E8F2D62E0E6D9D82EB52E521700
:1007800018F4AA24A39402C0AA24AA94C32E0EC0CB
:10079000002319F08B2D6C2D02C08C2D6B2D05DFE5
:1007A000DE18D7FE02C0BA0CDF0CC3941C1580F70C
:1007B0001F910F91FF90EF90DF90CF90BF90AF907F
:1007C0000895FF920F931F9301E08091BF038D3234
:1007D00009F000E0102F20E030E0A901E12FF0E067
:1007E000E154FC4FF0808F2D80538A3028F5CA01E8
:1007F000B9012AE030E040E050E07AD92F2D30E016
:1008000020533040442737FD4095542F260F371F83
:10081000481F591F1F5F1B3008F3002321F06FEFA3
:100820007FEFCB0104C061E070E080E090E060D930
:100830001F910F91FF9008958F2D8E3259F3EDCFB8
:100840008091BD03882301F58FEB93E066E171E0B1
:1008500045E050E0E9D9009731F481E08093BD0391
:100860001092780108958FEB93E06CE171E045E020
:1008700050E0DAD9009709F00AC182E08093BD0305
:1008800084E68093780108958091BC03882309F45D
:10089000FEC0809178018536E9F18636D8F484303F
:1008A00009F469C0853048F48230F1F1833008F0F2
:1008B00045C0813009F0EBC02DC0863009F482C0FC
:1008C000863008F462C0873009F480C0893009F0AE
:1008D000DEC080C08A3609F458C08B3648F48836AA
:1008E00069F1893608F047C0873609F0D0C01CC0CE
:1008F0008C3609F488C08C3608F472C08D3609F441
:1009000088C0883C09F0C3C0EFEBF3E080E090E0E2
:10091000DC01AFC00EDE6093AD037093AE03809335
:10092000AF039093B00308954CDF6093A3037093DB
:10093000A4038093A5039093A60308958091BF0319
:10094000833509F0A4C08091A3039091A403A091E2
:10095000A503B091A603B095A095909581959F4F62
:10096000AF4FBF4F8093A3039093A403A093A5031D
:10097000B093A603089525DF6093A7037093A8039F
:100980008093A9039093AA0308958091BF038735AC
:1009900009F07DC08091A7039091A803A091A903BD
:1009A000B091AA03B095A095909581959F4FAF4FB8
:1009B000BF4F8093A7039093A803A093A903B0937C
:1009C000AA030895B6DD6093B1030895B2DD609384
:1009D000B2030895AEDD7093AC036093AB0308954A
:1009E000A8DD4FEC51E0649F9001659F300D749F2E
:1009F000300D1124C9016AEF70E0B2D87093B403CE
:100A00006093B303089595DD7093B6036093B503C7
:100A100008958FDD6093B7037093B8038093B90393
:100A20009093BA03089534E0880F991FAA1FBB1F43
:100A30003A95D1F7322F3154363020F430E0275335
:100A400030400FC0322F3156363020F430E0275579
:100A5000304007C0322F30533A3058F430E0205342
:100A60003040442737FD4095542F820F931FA41F19
:100A7000B51F2191222321F033E0EB3CF30799F6D7
:100A800021E03091BE03381320E02093BB0308958A
:100A9000EF92FF920F931F93CF93DF93EC01E62F1A
:100AA000F0E0EE0FFF1FE35BFB4FE080FF2400E070
:100AB00010E0218130E040E050E064E0CADBFE015C
:100AC000E80FF11D9EE29083682F6F5F8AE0E816C1
:100AD000F1040105110534F4FE01E60FF11D80E378
:100AE00080836F5FCE01A8019701B3DB682FCE0131
:100AF00042E251E054DCDF91CF911F910F91FF90C2
:100B0000EF900895DF93CF93CDB7DEB763970FB61D
:100B1000F894DEBF0FBECDBF20E12BB988E08AB9C3
:100B200029988CE084B980916F00816080936F0078
:100B30008091810082608093810083E080936900CE
:100B400031E03DBB80E880BF10927B001EBC8DB5BC
:100B50008E7F8DBD84E58CBDE0918601F0E0EE0FC7
:100B6000FF1FEA59FE4F8081918190938901809304
:100B7000880110927E0080917C00806480937C00CC
:100B800080917A00866080937A0010927B00309387
:100B9000C50087E38093C40086E08093C200209361
:100BA000C10078948091C00087FF7DC00091C6008D
:100BB000909178019F3F21F4043209F074C010C075
:100BC000043271F0053230F40A3049F10D3009F089
:100BD00057C025C00A3299F00C3209F051C00AC042
:100BE0001092BC031092BD031092BE0310927801C4
:100BF00028DB59C08091BE0380278093BE0320DE8E
:100C000020DB1092BC03809178018F5F8093780184
:100C10000A3209F048C088EC8093780144C010DEA5
:100C20004FEF409378012091AB033091AC0380915A
:100C3000D2039091D3038217930724F481E0809329
:100C4000E30305C02817390714F44093E3038091A8
:100C5000BB03882341F1AAECB3E0E3EAF3E089E1C6
:100C600001900D928150E1F781E08093E40380913F
:100C7000E5039091E6039093E8038093E70313C0A4
:100C80008091BC03E82FF0E0E154FC4F0083983CD6
:100C900029F09091BE0390279093BE038A3018F4F8
:100CA0008F5F8093BC034C9925C081E08093A103A2
:100CB0008091A203833330F11092A2035B9A80915A
:100CC000BB038823F9F08091B1038823D9F0AAEE01
:100CD000B3E0EAECF3E08AE001900D928150E1F795
:100CE00081E08093E9031092F4031092E5031092DF
:100CF000E60308C08091A10381115B981092A103C3
:100D00001092A20380918701823009F07AC010927C
:100D100087018091860190E0FC0125E0EE0FFF1F26
:100D20002A95E1F7E80FF91FE557FE4F85EFE82E0A
:100D300083E0F82ED70180E090E021912032E1F0AD
:100D40002223D1F02B3550F4822F90E003E0880F5E
:100D5000991F0A95E1F78852914010C0322F3556FD
:100D6000393060F4822F90E013E0880F991F1A95B4
:100D7000E1F78057914002C08FEF9FEF8D939D93D5
:100D800004E0A733B007C9F680E090E078E0A72E32
:100D9000CC24CA944C01D7010D911D917D01809105
:100DA0007901992787FD90958017910761F0BFEF32
:100DB0000F3F1B0771F087E394E0B80148E050E073
:100DC00050D700937901A7E3B4E0F401EF5AFD4F47
:100DD00009C0E7E3F4E00A2D11920A95E9F7C09201
:100DE0007901F1CF8D918083B19614E0AF33B107D3
:100DF000C9F70894811C911C21E28216910459F6CE
:100E0000D1CE80918701813009F0CCCE109287013C
:100E10008091A103882329F08091A2038F5F8093A2
:100E2000A2038091F40362E382D6992309F0E7C21A
:100E30008091B103882311F05B9A04C08BB198E0D4
:100E400089278BB98091E903882309F4E4C1E090F4
:100E5000CA03F090CB030091CC031091CD032090F6
:100E6000CE033090CF034090D0035090D103A09098
:100E7000EA03B090EB03C090EC03D090ED038091B7
:100E8000EE039091EF03A091F003B091F1038983F9
:100E90009A83AB83BC83EA14FB040C051D0591F413
:100EA000281639064A065B0669F410923F04109230
:100EB0004004109241041092420410924404109293
:100EC0004304A9C1C601B5016E0D7F1D801F911F8E
:100ED00097FF07C090958095709561957F4F8F4FD4
:100EE0009F4F20E834E84EE150E061D6C901865AB0
:100EF0009F4FEAD88D83C801B70102D96E837F83E3
:100F000088879987C601B501FBD83B014C01C20116
:100F1000B101F6D87B018C0169817A818B819C813A
:100F2000EFD89B01AC012E193F09400B510BEE800D
:100F3000FF80088519856E187F08800A910AFD8058
:100F40006F2D772767FD7095872F972FD1D524E6D2
:100F500030E040E050E04DD619012A0162E0E62E73
:100F6000F12C012D112DCC24C3940FC0C201B1016D
:100F7000A80197013ED619012A01C401B301A801B5
:100F8000970137D639014A01CC0CA201910157FED5
:100F900007C022273327A90122193309440955091B
:100FA0002F3F6FEF360760E0460760E05607F0F628
:100FB000D401C30197FE07C088279927DC01861951
:100FC0009709A809B9098F3FEFEF9E07E0E0AE0748
:100FD000E0E0BE0758F6C9822A873B874C875D87C9
:100FE0008E879F87A88BB98BC201B101A2019101A5
:100FF0007FD55B016C01C401B301A401930178D5D5
:10100000E1E00FC052E0D694C794B794A7945A95E4
:10101000D1F742E096958795779567954A95D1F7F0
:10102000EE0FE92EFF24002711272D2D332744270B
:101030005527E20EF31E041F151F2FEFE216F104D1
:101040000105110509F0F0F6ED8386017501E60E44
:10105000F71E081F191FEE82FF82088719875701A4
:101060006801D694C794B794A794A114B104C1049D
:10107000D10461F180E090E09B8B8A8B02C0570124
:1010800068016E817F8188859985A60195018FD53C
:1010900079018A01EA0CFB1C0C1D1D1D1695079594
:1010A000F794E794AE18BF08C00AD10A22E0A2164E
:1010B000B104C104D10470F04A895B894F5F5F4F6E
:1010C0005B8B4A8B4A315105D1F604C0EE80FF801C
:1010D000088519856D81262F30E040E050E0C80179
:1010E000B70106D56B017C0161157105810591057C
:1010F00009F46AC08A859B85AC85BD850E851F85F0
:101100002889398980179107A207B307D8F0C90148
:10111000B80124E630E040E050E0EAD4A7019601AF
:1011200046D5022F20E030E0590103C00894A11CED
:10113000B11CC501C9D708171CF11AE5A116B104E5
:10114000A9F71EC06A857B858C859D8524E630E0E5
:1011500040E050E0CDD4A701960129D5A22E00E0B1
:1011600010E002C00F5F1F4FC801AED7A8161CF0D9
:101170000A351105B9F72AE530E0201B310B01C013
:101180009501611471048104910429F457FC1FC076
:101190008AE590E01EC016141704180419044CF4D4
:1011A00057FC03C08AE590E00CC0C901825F9E4FE6
:1011B00010C057FC04C0C901865A9F4F0AC08EE078
:1011C00091E0821B930B05C080E090E002C08EE0AE
:1011D00091E09093440480934304C701B60125E352
:1011E00031E040E050E084D428EE33E040E050E0CD
:1011F000DED479018A016981262F30E040E050E099
:10120000C801B70175D460933F0470934004809384
:10121000410490934204A5E4AA2EA4E0BA2EFAE772
:101220006F2EF1E07F2EEEE72E2EE1E03E2E8DE4D4
:1012300094E0CC244C0180917C00807F80937C00E2
:1012400080917C008C2980937C0080917A00806A58
:1012500080937A0080917A00806480937A008091F4
:101260007A0084FFFCCF80917A00806180937A00BD
:1012700080917A008F7580937A00609178007091E8
:101280007900D5016D937D935D0180E090E026E3C8
:1012900031E040E050E02CD42AE030E040E050E083
:1012A00086D479018A01F30121913F0130E040E0C9
:1012B00050E0C801B7011CD4D1012D911D0130E0CF
:1012C00040E050E074D479018A017AE016950795E0
:1012D000F794E7947A95D1F7E982FA820B831C831D
:1012E0008E2D90E0982F8827990F990FA0E0B0E0FD
:1012F00079018A01E81AF90A0A0B1B0BC801B70128
:1013000024E630E040E050E0F3D32AE0969587955C
:10131000779567952A95D1F7D4016C93E981119659
:10132000EC931197C39492E0E92EF12C8E0C9F1C44
:101330000C2D043009F07FCF80914D0490914E0424
:10134000909356048093550480914F0490915004DB
:1013500090935804809357049091520484E6989F88
:10136000C001112420915104820F911D11E0853F8D
:10137000910798F48937910598F0AC01485750408F
:1013800024E630E0429FC001439F900D529F900D94
:1013900011246CE771E0E4D305C064E670E002C09C
:1013A00060E070E0362F609359049091560484E613
:1013B000989FC001112420915504820F911D21E0B6
:1013C00043E0883E940708F020E020935A0490916F
:1013D000580484E6989FC001112420915704820F7D
:1013E000911D21E053E0883E950708F020E020930E
:1013F0005B0481E03E3108F080E080935C048091E2
:10140000F4038F5F8093F4038091F403823378F0C8
:101410001092F4038091E5038F5F8093E503809140
:101420005D0490E001968170907080935D048091DE
:10143000E5038C3338F01092E5038091E6038F5F6B
:101440008093E6038091E6038C3310F01092E6035C
:101450008CEAE82E81E0F82E80E090E000E3C02ED8
:101460005C015CC11192EE15FF05E1F78A2DAA20FF
:1014700081F58BE891E061E044E251E090D7809102
:101480005A04882321F080915D04882321F08BE8A1
:1014900091E060E0FDDA80915904882331F08BE817
:1014A00091E06CE047E251E07AD78BE891E062E1AD
:1014B00049E251E074D7682F6E5F2091CA033091E2
:1014C000CB034091CC035091CD038BE891E001E038
:1014D00062C0813009F061C09091580484E6989F01
:1014E000C001112420915704820F911D009731F003
:1014F0008CEA91E061E04BE251E051D790915804C1
:1015000084E6989FC001112420915704820F911DF9
:10151000009761F080915B04882321F080915D0445
:10152000882321F08CEA91E061E0B2DA80915C04DA
:10153000882321F080915D04882369F0209159046B
:10154000222349F030E040E050E08CEA91E06CE08A
:101550000EE211E044D78091D803882351F0209106
:10156000D90330E040E050E08CEA91E062E171D6CE
:1015700006C08CEA91E062E140E351E010D720918F
:10158000CE033091CF034091D0035091D1038CEA28
:1015900091E065E100E032D7B1C0823039F5809149
:1015A000E9038823C1F08DEC91E060E042E351E073
:1015B000F6D68DEC91E062E044E351E0F0D6209164
:1015C0003F043091400440914104509142048DEC1D
:1015D00091E065E085C080915D04882309F48EC0A8
:1015E0008DEC91E06AE047E351E087C0833009F079
:1015F00040C08EEE91E060E043E451E0D0D68091AF
:10160000E303813031F48EEE91E065E047E451E090
:101610000DC08F3F31F48EEE91E065E049E451E07A
:1016200005C08EEE91E065E04BE451E0B8D6209124
:10163000D2033091D3038091F2039091F303281BDE
:10164000390B442737FD4095542F8EEE91E067E02B
:1016500000D68EEE91E069E14DE451E0A0D62091F4
:10166000DC033091DD0340E050E08EEE91E06DE16F
:1016700037C08430B9F52091DA033091DB0340E0C4
:1016800050E08FE092E060E0E4D58FE092E065E02A
:1016900041E551E084D68091E6038A3020F4C0927F
:1016A0002A026CE101C06BE12091E60330E040E0EA
:1016B00050E08FE092E006E511E091D6682F80912E
:1016C000E5038A3030F4E62FF0E0E15FFD4FC082A1
:1016D0006F5F2091E50330E040E050E08FE092E062
:1016E000B8D50CC080E392E060E048E551E057D601
:1016F00080E392E068E149E551E051D60894A11CED
:10170000B11C81E290E0E80EF91E96E0A916B10442
:1017100029F421E733E080E090E016C0F50115E000
:10172000EE0FFF1F1A95E1F7EA0DFB1DE557FE4F7F
:1017300099CE1192E217F307E1F701969F01285E17
:101740003F4F8330910569F0FC01EE0FFF1FE80F5A
:10175000F91FA3E0EE0FFF1FAA95E1F7E75AFC4F30
:10176000E8CFE0904304F09044048091DC03909132
:10177000DD03E81AF90A8BE03CD780913F04909191
:101780004004A0914104B09142048A309105A10522
:10179000B10518F482E02DD705CA8091B1038823E2
:1017A00051F485E065E041E121E1A7D785E061E101
:1017B00041E125E051C0C701865A9F4F85D4082FCB
:1017C000C70182D4E82F402F552747FD5095F3E0FD
:1017D000440F551FFA95E1F724E630E0CA01B9013C
:1017E000D3D18B018E2F992787FD9095E3E0880F49
:1017F000991FEA95E1F7B901C7D15B01602F7BE042
:10180000C72ECA0C8BE0E82EE01A655F8A194C2DB2
:101810002E2D73D752E0852E912CC801B401B4D17E
:10182000709561957F4F462F455FC501B401ACD1DE
:10183000709561957F4F262F255F8C2D6E2D5DD77E
:10184000C801B401A1D1462F455FC501B4019CD1A7
:10185000262F255F8C2D6E2D50D7A4C91F920F9275
:101860000FB60F9211242F933F934F935F936F9373
:101870007F938F939F93AF93BF93EF93FF931092B8
:1018800085001092840088E28A95F1F780918201A8
:10189000909183014A99F2C0009709F47FC080912A
:1018A0008501813021F0823009F078C04AC09091E2
:1018B0008601E8E1EA95F1F7292F30E0F90175E0BA
:1018C000EE0FFF1F7A95E1F7E20FF31FE557FE4F8A
:1018D000A0918A0181E2A89FD0011124AF5ABD4F87
:1018E000989FC001112484559E4F2191203221F0F0
:1018F000222311F0219A02C0219800002D912EBDC3
:1019000000000000000000000000000000000000D7
:1019100000000000000000000000000000000000C7
:101920000000E817F90709F70000000000000000B8
:101930000000000000000000000000001EBC219814
:101940002DC083E191E00197F1F700C00000E09124
:101950008A01F0E0E75AFC4F83E090819EBD219A16
:101960000000000000000000000000000000000077
:101970000000000000000000000000000000000067
:101980000000000000000000000000000000815086
:101990007896882311F7219800001EBC10928501CB
:1019A00080918201909183010196909383018093AD
:1019B00082018E36910511F421E004C08F36910525
:1019C00019F422E020938701209188013091890148
:1019D00082179307A0F0409163015091640184172E
:1019E000950768F441E040938501821B80938A014A
:1019F00090916501923009F048C0869531C02091E0
:101A00006301309164018217930769F582E0809346
:101A100087018091860190E0019666E070E0B4D085
:101A200080938601FC01EE0FFF1FEA59FE4F2081D3
:101A3000318130938901209388018E589E4FFC019B
:101A400080818093650190E053E0880F991F5A953B
:101A5000E1F7820F931F909364018093630181E00B
:101A600080938A0112C09C012956304028313105EB
:101A700060F422E0209385018956F2CF893C9105DC
:101A800020F01092830110928201FF91EF91BF919B
:101A9000AF919F918F917F916F915F914F913F9106
:101AA0002F910F900FBE0F901F9018951F920F92BD
:101AB0000FB60F9211242F933F938F939F93809192
:101AC0008201909183012091840130E02817390729
:101AD00021F42BB138E023272BB9809384019F9107
:101AE0008F913F912F910F900FBE0F901F901895DF
:101AF000629FD001739FF001829FE00DF11D649FF2
:101B0000E00DF11D929FF00D839FF00D749FF00D7D
:101B1000659FF00D9927729FB00DE11DF91F639F1E
:101B2000B00DE11DF91FBD01CF0111240895991BCE
:101B300079E004C0991F961708F0961B881F7A95C4
:101B4000C9F78095089587FB082E062687FD8195A5
:101B500067FD6195ECDF0EF4919507FC8195089582
:101B6000AA1BBB1B51E107C0AA1FBB1FA617B707C3
:101B700010F0A61BB70B881F991F5A95A9F78095DF
:101B80009095BC01CD01089597FB092E07260AD038
:101B900077FD04D0E5DF06D000201AF4709561953A
:101BA0007F4F0895F6F7909581959F4F0895A1E294
:101BB0001A2EAA1BBB1BFD010DC0AA1FBB1FEE1FC7
:101BC000FF1FA217B307E407F50720F0A21BB30B12
:101BD000E40BF50B661F771F881F991F1A9469F78E
:101BE00060957095809590959B01AC01BD01CF01EA
:101BF000089597FB092E05260ED057FD04D0D7DF98
:101C00000AD0001C38F450954095309521953F4FEF
:101C10004F4F5F4F0895F6F79095809570956195B9
:101C20007F4F8F4F9F4F0895FB01DC014150504083
:101C300030F08D910190801919F40020B9F7881BBC
:101C4000990B0895FB01DC014150504048F0019090
:101C50000D920020C9F701C01D9241505040E0F79D
:101C60000895DC01CB01FC01F999FECF06C0F2BD5D
:101C7000E1BDF89A319600B40D9241505040B8F74A
:061C80000895F894FFCF67
:101C86004E005300450057002D2D2E2D2D2D2D2DA8
:101C96002D2D3F002E004750474741004750524DDB
:101CA600430056006A3100690068006A3200250068
:101CB6002D0066004D54004E4F20484F4D45205094
:101CC6004F5300414C54006C006D003D00484447A2
:101CD600004B4D2F48003A00004650564C522E43BA
:101CE6004F4D0002000232004200AA00CD00FF0064
:101CF6001801010102010102FFFF010101010101B9
:021D06000601D4
:00000001FF
