:1000000047C09DCB60C05FC05EC05DC05CC05BC0D0
:100010005AC059C058C057C056C0B5CC54C053C0C0
:1000200052C051C050C04FC04EC04DC04CC04BC05C
:100030004AC049C00002030507090A0C0E1011133B
:100040001516181A1C1D1F2122242527292A2C2D9C
:100050002F303234353638393B3C3E3F4042434402
:10006000454748494A4B4D4E4F50515253545556AF
:10007000575758595A5B5B5C5D5D5E5F5F606061BE
:1000800061616262626363636364646464646400A4
:1000900011241FBECFEFD4E0DEBFCDBF11E0A0E042
:1000A000B1E0E0E6FBE102C005900D92A237B10796
:1000B000D9F714E0A2E7B1E001C01D92A734B1075F
:1000C000E1F7EDD44BCD9CCF68E671E0AADC843B30
:1000D000910520F0845B90404FEF01C041E08A35EC
:1000E000910530F024EB30E0B901681B790BCB01AE
:1000F000FC01EC5CFF4F8491849F802D11240895B6
:100100002F923F924F925F926F927F928F929F9227
:10011000AF92BF92CF92DF92EF92FF920F931F9315
:10012000DF93CF9300D000D00F92CDB7DEB77B0125
:100130008C0197FF0BC010950095F094E094E11CA2
:10014000F11C011D111D8FEF898302C0E1E0E983DD
:10015000C801B70120E432E44FE050E0ABDCA22E4E
:10016000BB24CC24DD2480E1682E87E2782E812C0C
:10017000912CC801B701A40193019CDC6A837B83A5
:100180008C839D83C601B5012CE330E040E050E054
:100190001CDC1B012C01C601B50120EC3DEB40EF3E
:1001A0005FEF13DC6E0D7F1D801F911FA401930173
:1001B00081DC220E311C411C511C6A817B818C81A7
:1001C0009D812CE330E040E050E0FFDB5B016C01FF
:1001D000C201B10120E737E140E050E0F6DB7B01EE
:1001E0008C01C601B50124E630E040E050E040DC7F
:1001F000E20EF31E041F151FF981FF3F41F4109515
:100200000095F094E094E11CF11C011D111DC80142
:10021000B7010F900F900F900F900F90CF91DF913B
:100220001F910F91FF90EF90DF90CF90BF90AF9014
:100230009F908F907F906F905F904F903F902F9006
:100240000895EFEAF3E0119283E0EA3BF807D9F76B
:1002500008954F925F926F927F928F929F92AF928A
:10026000BF92CF92DF92EF92FF920F931F93DF9393
:10027000CF930F92CDB7DEB72C01C62E79018A013C
:1002800017FF07C022273327A9012E193F09400B6A
:10029000510BDD24D3946AE0862E912CA12CB12C35
:1002A00006C0CA01B901A501940104DCD3942A3027
:1002B000310541055105ACF717FDD3948C2D90E025
:1002C0009C012D0D311D213231050CF055C0480E19
:1002D000591E17FF0BC010950095F094E094E11C97
:1002E000F11C011D111D6FEF698301C019825201BC
:1002F0009AE0692E712C812C912CC801B701A401C0
:100300009301D8DB605DF50161935F018E2F841945
:1003100079018A01121613061406150674F3F98181
:10032000FF3F49F4E82FFF27E7FDF095E40DF51DA9
:100330009DE290838F5FE82FFF27E7FDF095E40DA6
:10034000F51D10828150582F569540E0282F30E03F
:10035000842F90E0D201A80FB91F6C91F901E81B1E
:10036000F90BE40DF51D80818C9360834F5F54176A
:1003700078F78D2D8C0D01C081E20F90CF91DF9128
:100380001F910F91FF90EF90DF90CF90BF90AF90B3
:100390009F908F907F906F905F904F9008950F93F4
:1003A0001F939C01062FFA01DA010D900020E9F756
:1003B00011971A2F141B862F90E0810F911D813207
:1003C00091050CF011E2412F50E0C901800F911D01
:1003D000BF01A5DB812F800F1F910F9108950F930F
:1003E0001F93CF93DF93EC0134DF682FCE01A80178
:1003F000D6DFDF91CF911F910F9108950F931F9337
:10040000CF93DF93EC01E42FF0E0EE0FFF1FE45CED
:10041000FB4F1081218130E040E050E01ADFFE0107
:10042000E80FF11D9EE29083682F6F5F1A3030F461
:10043000FE01E60FF11D80E380836F5F212F30E026
:1004400040E050E0CE0100E011E0C9DFDF91CF9144
:100450001F910F9108954F925F926F927F928F92AA
:100460009F92AF92BF92CF92DF92EF92FF920F9343
:100470001F93CF93DF93EC01162F69017A012115A9
:1004800031054105510521F44AE051E088DF47C0BC
:10049000CA01B90120E432E44FE050E00BDB822EC8
:1004A0009924AA24BB24C501B40120EC3DEB40EF04
:1004B0005FEF8BDA6C0D7D1D8E1D9F1D24E630E0F5
:1004C00040E050E082DA2CE330E040E050E0D0DA67
:1004D00029013A01002359F01C141D041E041F04B5
:1004E0001CF482E091E00DC084E091E00AC01C148D
:1004F0001D041E041F041CF486E091E002C088E085
:1005000091E06C01CE01612FA501940106E111E09B
:1005100066DF682FCE01A3019201860160DFDF91C3
:10052000CF911F910F91FF90EF90DF90CF90BF90F0
:10053000AF909F908F907F906F905F904F900895B5
:10054000FF920F931F9301E08091AF038D3209F06A
:1005500000E0102F20E030E0A90114C0CA01B90169
:100560002AE030E040E050E030DA2F2D30E0205338
:100570003040442737FD4095542F260F371F481F22
:10058000591F1F5FE12FF0E0E155FC4FF0808F2DE8
:1005900080538A3010F41B3008F3002321F06FEFF2
:1005A0007FEFCB0104C061E070E080E090E00DDA05
:1005B0001F910F91FF900895FF920F931F9301E0F9
:1005C0008091AF038D3209F000E0102F20E030E081
:1005D000A901E12FF0E0E155FC4FF0808F2D805311
:1005E0008A3028F5CA01B9012AE030E040E050E045
:1005F000ECD92F2D30E020533040442737FD409573
:10060000542F260F371F481F591F1F5F1B3008F339
:10061000002321F06FEF7FEFCB0104C061E070E0B9
:1006200080E090E0D2D91F910F91FF9008958F2D17
:100630008E3259F3EDCF8091AD03882301F58FEA17
:1006400093E068E171E045E050E05BDA009731F457
:1006500081E08093AD031092660108958FEA93E0E4
:100660006EE171E045E050E04CDA009709F00AC114
:1006700082E08093AD0384E68093660108958091C3
:10068000AC03882309F4FEC0809166018536E9F148
:100690008636D8F4843009F469C0853048F4823055
:1006A000F1F1833008F045C0813009F0EBC02DC076
:1006B000863009F482C0863008F462C0873009F4BD
:1006C00080C0893009F0DEC080C08A3609F458C085
:1006D0008B3648F4883669F1893608F047C087368A
:1006E00009F0D0C01CC08C3609F488C08C3608F4E0
:1006F00072C08D3609F488C0883C09F0C3C0EFEAA7
:10070000F3E080E090E0DC01AFC01ADF60939D036E
:1007100070939E0380939F039093A00308954CDFF2
:10072000609393037093940380939503909396033F
:1007300008958091AF03833509F0A4C0809193039D
:1007400090919403A0919503B0919603B095A095D4
:10075000909581959F4FAF4FBF4F80939303909398
:100760009403A0939503B0939603089525DF6093B7
:100770009703709398038093990390939A03089535
:100780008091AF03873509F07DC0809197039091E8
:100790009803A0919903B0919A03B095A095909574
:1007A00081959F4FAF4FBF4F8093970390939803CE
:1007B000A0939903B0939A030895C2DE6093A103B6
:1007C0000895BEDE6093A2030895BADE70939C0381
:1007D00060939B030895B4DE4FEC51E0649F900159
:1007E000659F300D749F300D1124C9016AEF70E0D0
:1007F00018D97093A4036093A3030895A1DE7093A6
:10080000A6036093A50308959BDE6093A7037093EE
:10081000A8038093A9039093AA03089534E0880F56
:10082000991FAA1FBB1F3A95D1F7322F315436308A
:1008300020F430E0275330400FC0322F315636308D
:1008400020F430E02755304007C0322F30533A3083
:1008500058F430E020533040442737FD4095542F62
:10086000820F931FA41FB51F2191222321F033E093
:10087000EB3BF30799F621E03091AE03381320E00B
:100880002093AB030895883108F56831F8F4482FB8
:1008900046954695469550E08095877021E030E07A
:1008A00002C0220F331F8A95E2F7FA01EE0FFF1FF5
:1008B000E40FF51F43E0EE0FFF1F4A95E1F7E60F47
:1008C000F11DE75BFC4F8081822B80830895FF92AE
:1008D0000F931F93DF93CF9300D000D00F92CDB72B
:1008E000DEB7182F81E0982F911B99838A83812F7F
:1008F0008195880F8B831C821D83EBE0FE2EF10E09
:100900008BE06F2DC0DF0BE0011B8BE0602FBBDFA6
:100910008F2D6BE0B8DF802F6BE0B5DF1BE04BC0A5
:10092000898187FD0AC08D8181508D838B818E5F87
:100930008B8399818B81890F89838C818F5F8C83D5
:100940008A818E5F8A8399818A81890F89838C81CC
:100950006D81655F855F97DF8C816D81655F912F0C
:10096000981B892F90DF8C819D81612F691B855F8A
:100970008ADF8C819D81612F691B912F981B892FA4
:1009800082DF8D816C81655F855F7DDF8D816C810C
:10099000655F912F981B892F76DF8D819C81612F58
:1009A000691B855F70DF8D819C81612F691B912F91
:1009B000981B892F68DF9C818D8198170CF4B0CF2C
:1009C0000F900F900F900F900F90CF91DF911F918C
:1009D0000F91FF900895AF92BF92CF92DF92EF9266
:1009E000FF920F931F93382F562F142FA22FB0E092
:1009F000A61BB109B7FF03C0B095A195BF4FE12F6A
:100A0000F0E0E31BF109F7FF03C0F095E195FF4F1C
:100A100001E0EA17FB0714F000E006C0812F122F57
:100A2000282F832F352F582F131730F4852F522F4F
:100A3000282F832F312F182FF12EF31AE22FF0E0F9
:100A4000E51BF109F7FF03C0F095E195FF4FEE2E8E
:100A50008F2D62E0D9D7D82EB52E521718F4AA24BC
:100A6000A39402C0AA24AA94C32E0EC0002319F096
:100A70008B2D6C2D02C08C2D6B2D05DFDE18D7FE63
:100A800002C0BA0CDF0CC3941C1580F71F910F91A4
:100A9000FF90EF90DF90CF90BF90AF900895DF93DD
:100AA000CF93CDB7DEB763970FB6F894DEBF0FBE16
:100AB000CDBF20E12BB988E08AB929988CE084B9B0
:100AC00080916F00816080936F00809181008260CF
:100AD0008093810083E08093690031E03DBB80E832
:100AE00080BF10927B001EBC8DB58E7F8DBD84E5CE
:100AF0008CBDE0917601F0E0EE0FFF1FEC5AFE4F47
:100B000080819181909379018093780110927E0089
:100B100080917C00806480937C0080917A00866064
:100B200080937A0010927B003093C50087E3809316
:100B3000C40086E08093C2002093C1007894809125
:100B4000C00087FF74C00091C600909166019F3F6E
:100B500021F4043209F06BC010C0043271F0053288
:100B600030F40A3049F10D3009F04EC025C00A3288
:100B700099F00C3209F048C00AC01092AC031092F0
:100B8000AD031092AE03109266015BDB50C0809102
:100B9000AE0380278093AE034EDD53DB1092AC038F
:100BA000809166018F5F809366010A3209F03FC031
:100BB00088EC809366013BC03EDD8FEF8093660139
:100BC0008091AB03882399F1AAEBB3E0E3E9F3E06A
:100BD00089E101900D928150E1F781E08093D30388
:100BE0008091D4039091D5039093D7038093D6033B
:100BF00021E08091CA039091CB038330910508F0E6
:100C000020E02093670113C08091AC03E82FF0E04F
:100C1000E155FC4F0083983C29F09091AE0390275A
:100C20009093AE038A3018F48F5F8093AC034C9995
:100C30001DC081E080939103809192038333F0F093
:100C40005B9A8091AB038823C9F08091A10388232C
:100C5000A9F0A9EDB3E0EAEBF3E08AE001900D9290
:100C60008150E1F781E08093D80308C0809191031F
:100C700081115B98109291031092920380917701F9
:100C8000823009F07AC0109277018091760190E06D
:100C9000FC0165E0EE0FFF1F6A95E1F7E80FF91F11
:100CA000E558FE4F53EEE52E53E0F52ED70180E0D8
:100CB00090E021912032E1F02223D1F02B3550F445
:100CC000822F90E043E0880F991F4A95E1F7885200
:100CD000914010C0322F3556393060F4822F90E0A9
:100CE00033E0880F991F3A95E1F78057914002C091
:100CF0008FEF9FEF8D939D9304E0A532B007C9F667
:100D000080E090E028E0A22ECC24CA944C01D701C8
:100D10000D911D917D0180916801992787FD909526
:100D20008017910761F0BFEF0F3F1B0771F085E25D
:100D300094E0B80148E050E001D700936801A5E2D3
:100D4000B4E0F401EF5BFD4F09C0E5E2F4E00A2DE9
:100D500011920A95E9F7C0926801F1CF8D918083D5
:100D6000B19614E0AD32B107C9F70894811C911C0B
:100D700021E28216910459F6E2CE8091770181300A
:100D800009F0DDCE1092770180919103882329F03C
:100D9000809192038F5F8093920380912D0488232A
:100DA00009F098C28091A103882311F05B9A04C0D6
:100DB0008BB198E089278BB98091D803882309F4F7
:100DC000E4C1E090BA03F090BB030091BC03109122
:100DD000BD032090BE033090BF034090C0035090ED
:100DE000C103A090D903B090DA03C090DB03D09088
:100DF000DC038091DD039091DE03A091DF03B091CD
:100E0000E00389839A83AB83BC83EA14FB040C055B
:100E10001D0591F4281639064A065B0669F41092FE
:100E20002E0410922F04109230041092310410926C
:100E3000330410923204A9C1C601B5016E0D7F1DA5
:100E4000801F911F97FF07C09095809570956195C1
:100E50007F4F8F4F9F4F20E834E84EE150E008D697
:100E6000C901865A9F4F30D98D83C801B70148D92F
:100E70006E837F8388879987C601B50141D93B017D
:100E80004C01C201B1013CD97B018C0169817A819D
:100E90008B819C8135D99B01AC012E193F09400BF8
:100EA000510BEE80FF80088519856E187F08800A37
:100EB000910AFD806F2D772767FD7095872F972FFB
:100EC00084D524E630E040E050E0F4D519012A0151
:100ED00082E0E82EF12C012D112DCC24C3940FC0FB
:100EE000C201B101A8019701E5D519012A01C40188
:100EF000B301A8019701DED539014A01CC0CA2014A
:100F0000910157FE07C022273327A901221933096F
:100F1000440955092F3F6FEF360760E0460760E050
:100F20005607F0F6D401C30197FE07C0882799271A
:100F3000DC0186199709A809B9098F3FEFEF9E07D1
:100F4000E0E0AE07E0E0BE0758F6C9822A873B879B
:100F50004C875D878E879F87A88BB98BC201B101B3
:100F6000A201910132D55B016C01C401B301A4015E
:100F700093012BD5E1E00FC012E0D694C794B7944B
:100F8000A7941A95D1F7B2E09695879577956795CE
:100F9000BA95D1F7EE0FE92EFF24002711272D2D4A
:100FA000332744275527E20EF31E041F151F2FEF8A
:100FB000E216F1040105110509F0F0F6ED837B015D
:100FC0008C01EA0CFB1C0C1D1D1DEE82FF820887A4
:100FD000198757016801D694C794B794A794A114B0
:100FE000B104C104D10461F180E090E09B8B8A8B55
:100FF00002C0570168016E817F8188859985A601AD
:10100000950136D579018A01EA0CFB1C0C1D1D1DCA
:1010100016950795F794E794AE18BF08C00AD10A51
:1010200022E0A216B104C104D10470F04A895B89A0
:101030004F5F5F4F5B8B4A8B4A315105D1F604C03D
:10104000EE80FF80088519856D81262F30E040E015
:1010500050E0C801B701B9D46B017C01611571057D
:101060008105910509F46AC08A859B85AC85BD859B
:101070000E851F852889398980179107A207B30734
:10108000D8F0C901B80124E630E040E050E09DD43A
:10109000A7019601EDD4022F20E030E0590103C0F2
:1010A0000894A11CB11CC5010FD808171CF11AE542
:1010B000A116B104A9F71EC06A857B858C859D8524
:1010C00024E630E040E050E080D4A7019601D0D47F
:1010D000A22E00E010E002C00F5F1F4FC801F4D73E
:1010E000A8161CF00A351105B9F72AE530E0201BD7
:1010F000310B01C09501611471048104910429F43C
:1011000057FC1FC08AE590E01EC01614170418048F
:1011100019044CF457FC03C08AE590E00CC0C901E7
:10112000825F9E4F10C057FC04C0C901865A9F4F72
:101130000AC08EE091E0821B930B05C080E090E036
:1011400002C08EE091E09093330480933204C70193
:10115000B60125E331E040E050E037D428EE33E03B
:1011600040E050E085D479018A016981262F30E082
:1011700040E050E0C801B70128D460932E0470937A
:101180002F04809330049093310434E3A32E34E091
:10119000B32E29E6622E21E0722E9DE6292E91E0E3
:1011A000392E8CE394E0CC244C0180917C00807F2C
:1011B00080937C0080917C008C2980937C008091BE
:1011C0007A00806A80937A0080917A0080648093AC
:1011D0007A0080917A0084FFFCCF80917A00806150
:1011E00080937A0080917A008F7580937A00609165
:1011F000780070917900D5016D937D935D0180E059
:1012000090E026E331E040E050E0DFD32AE030E038
:1012100040E050E02DD479018A01F30121913F0192
:1012200030E040E050E0C801B701CFD3D1012D91AB
:101230001D0130E040E050E01BD479018A018AE0D2
:1012400016950795F794E7948A95D1F7E982FA8283
:101250000B831C838E2D90E0982F8827990F990F70
:10126000A0E0B0E079018A01E81AF90A0A0B1B0B29
:10127000C801B70124E630E040E050E0A6D31AE010
:1012800096958795779567951A95D1F7D4016C93C4
:10129000E9811196EC931197C394B2E0EB2EF12CF7
:1012A0008E0C9F1C0C2D043009F07FCF90913D04D3
:1012B00084E6989FC001112420913C04820F911D67
:1012C00021E013E0883E910708F020E020934404D9
:1012D0001092450480912D048F5F80932D0480919E
:1012E0002D04823378F010922D048091D4038F5F07
:1012F0008093D4038091460490E0019681709070B1
:10130000809346048091D4038C3338F01092D40338
:101310008091D5038F5F8093D5038091D5038C3363
:1013200010F01092D503ACE9EA2EA1E0FA2E80E08D
:1013300090E0F4E62F2EE4E6AE2EB12C7CE7672E8B
:1013400071E0772E60E3C62E4C0152C11192EE156A
:10135000FF05E1F7882D8820C1F58BE791E060E07B
:1013600044E251E01CD88BE791E067E047E251E0AE
:1013700016D88BE791E06EE04AE251E010D88091F8
:10138000D5038A3020F4C09296016CE101C06BE174
:101390002091D50330E040E050E08BE791E00CE293
:1013A00011E01DD8682F8091D4038A3030F4E62FE5
:1013B000F0E0E558FE4FC0826F5F2091D40330E02B
:1013C00040E050E08BE791E0D9C0813009F04EC099
:1013D0008CE991E060E24EE251E0E1D78091440473
:1013E000882321F080914604882329F08CE991E03C
:1013F00060E040E003D880914504882321F080918B
:101400004604882329F08CE991E067E041E0F6D7B3
:1014100080914104222D829FC0011124209140041B
:10142000820F911D31E0853F930780F48937910544
:1014300080F09C01285730402A9DC0012B9D900DC3
:101440003A9D900D1124B301ECD205C064E670E022
:1014500002C060E070E0262F30E040E050E08CE910
:1014600091E06EE00FE211E0BAD7B2C08230A9F489
:1014700080916701882309F4ABC08091D803882349
:1014800009F0A6C080914604882309F4A1C08DEB21
:1014900091E06AE041E351E09AC0833031F58091F8
:1014A0006701882309F494C08091D803882309F048
:1014B0008FC02091BA033091BB034091BC0350917F
:1014C000BD038EED91E064E001E0C5D7682F6E5F4B
:1014D0002091BE033091BF034091C0035091C103DE
:1014E0008EED91E000E0B7D773C0843009F048C0BA
:1014F0002091CA033091CB0340E050E08FEF91E0A0
:1015000060E0A7D68091D803882339F48FEF91E06B
:1015100065E04DE351E043D70CC020912E0430919B
:101520002F0440913004509131048FEF91E065E039
:1015300090D68091C803882351F02091C90330E0F0
:1015400040E050E08FEF91E067E183D606C08FEF77
:1015500091E067E14DE351E022D72091C203309141
:10156000C3038091E1039091E203281B390B4427C8
:1015700037FD4095542F8FEF91E06CE16AD628C07B
:1015800080E292E060E04FE351E009D780E292E030
:1015900065E043E451E003D79091D803682F6D5F75
:1015A000992329F080E292E047E451E004C080E210
:1015B00092E049E451E0F3D680E292E067E14BE447
:1015C00051E0EDD680E292E06CE14DE451E0E7D6E7
:1015D0000894811C911C41E250E0E40EF51E56E097
:1015E0008516910429F421E633E080E090E016C0EE
:1015F000F40155E0EE0FFF1F5A95E1F7E80DF91DD4
:10160000E558FE4FA3CE1192E217F307E1F70196DA
:101610009F01285E3F4F8330910569F0FC01EE0F7A
:10162000FF1FE80FF91F03E0EE0FFF1F0A95E1F718
:10163000E75BFC4FE8CFE0903204F09033048091F8
:10164000CC039091CD03E81AF90A8BE040D9809140
:101650002E0490912F04A0913004B09131048A306F
:101660009105A105B10518F482E031D968CA8091CD
:10167000CA039091CB038A30910520F08091A10399
:10168000882351F485E065E041E121E1A4D985E0BA
:1016900061E141E125E051C0C701865A9F4F14D551
:1016A000082FC70111D5E82F402F552747FD50952A
:1016B00013E0440F551F1A95E1F724E630E0CA0104
:1016C000B901C3D18B018E2F992787FD9095B3E087
:1016D000880F991FBA95E1F7B901B7D15B01602F67
:1016E000ABE0CA2ECA0C8BE0E82EE01A655F8A19BF
:1016F0004C2D2E2D70D9F2E08F2E912CC801B40103
:10170000A4D1709561957F4F462F455FC501B40107
:101710009CD1709561957F4F262F255F8C2D6E2D66
:101720005AD9C801B40191D1462F455FC501B40112
:101730008CD1262F255F8C2D6E2D4DD900CA1F927E
:101740000F920FB60F9211242F933F934F935F93F5
:101750006F937F938F939F93AF93BF93EF93FF9379
:1017600088E28A95F1F780917201909173014A990C
:10177000F2C0009709F47FC080917501813021F09B
:10178000823009F078C04AC090917601E8E1EA958C
:10179000F1F7292F30E0F901B5E0EE0FFF1FBA9500
:1017A000E1F7E20FF31FE558FE4FA0917A0181E2C5
:1017B000A89FD0011124AF5BBD4F989FC001112499
:1017C00084569E4F2191203221F0222311F0219A3C
:1017D00002C0219800002D912EBD000000000000E5
:1017E00000000000000000000000000000000000F9
:1017F000000000000000000000000000E817F907EA
:1018000009F70000000000000000000000000000D8
:101810000000000000001EBC21982DC083E191E073
:101820000197F1F700C00000E0917A01F0E0E75B7A
:10183000FC4F80E090819EBD219A000000000000D6
:101840000000000000000000000000000000000098
:101850000000000000000000000000000000000088
:1018600000000000000000008F5F7896833011F7C1
:10187000219800001EBC1092750180917201909118
:101880007301019690937301809372018E369105D6
:1018900011F421E004C08F36910519F422E0209361
:1018A0007701209178013091790182179307A0F098
:1018B00040915101509152018417950768F441E01D
:1018C00040937501821B80937A019091530192306D
:1018D00009F048C0869531C02091510130915201E4
:1018E0008217930769F582E08093770180917601F2
:1018F00090E0019666E070E0A8D080937601FC014C
:10190000EE0FFF1FEC5AFE4F208131813093790199
:1019100020937801805A9E4FFC018081809353016F
:1019200090E0E3E0880F991FEA95E1F7820F931F9B
:10193000909352018093510181E080937A0112C00B
:101940009C01295630402831310560F422E0209373
:1019500075018956F2CF893C910520F010927301F0
:1019600010927201FF91EF91BF91AF919F918F9172
:101970007F916F915F914F913F912F910F900FBE8B
:101980000F901F9018951F920F920FB60F9211246F
:101990002F933F938F939F93809172019091730146
:1019A0002091740130E02817390721F42BB138E079
:1019B00023272BB9809374019F918F913F912F9191
:1019C0000F900FBE0F901F901895629FD001739FCC
:1019D000F001829FE00DF11D649FE00DF11D929FCB
:1019E000F00D839FF00D749FF00D659FF00D99270A
:1019F000729FB00DE11DF91F639FB00DE11DF91F2E
:101A0000BD01CF011124089587FB082E062687FD0E
:101A1000819567FD619569D00EF4919507FC8195DC
:101A20000895AA1BBB1B51E107C0AA1FBB1FA61725
:101A3000B70710F0A61BB70B881F991F5A95A9F777
:101A400080959095BC01CD01089597FB092E07263E
:101A50000AD077FD04D0E5DF06D000201AF4709597
:101A600061957F4F0895F6F7909581959F4F089562
:101A7000A1E21A2EAA1BBB1BFD010DC0AA1FBB1F92
:101A8000EE1FFF1FA217B307E407F50720F0A21B04
:101A9000B30BE40BF50B661F771F881F991F1A9471
:101AA00069F760957095809590959B01AC01BD019B
:101AB000CF01089597FB092E05260ED057FD04D0BF
:101AC000D7DF0AD0001C38F4509540953095219509
:101AD0003F4F4F4F5F4F0895F6F790958095709563
:101AE00061957F4F8F4F9F4F0895991B79E004C0F8
:101AF000991F961708F0961B881F7A95C9F780954D
:101B00000895FB01DC014150504030F08D9101906F
:101B1000801919F40020B9F7881B990B0895FB016F
:101B2000DC014150504048F001900D920020C9F76F
:101B300001C01D9241505040E0F70895DC01CB01F7
:101B4000FC01F999FECF06C0F2BDE1BDF89A3196CD
:101B500000B40D9241505040B8F70895F894FFCF6B
:101B600056004E005300450057002D2D2E2D2D2DD3
:101B70002D2D2D2D3F002E00475047474100475047
:101B8000524D43006A31006A320069003A00002574
:101B9000004E4F20484F4D4520504F53002D0053CD
:101BA0005044004C4F5300660067006800414C549D
:101BB0000002000232004200AA00CD00FF0018011E
:101BC000010201010201FF01FF0101010101010602
:021BD000010012
:00000001FF
