:1000000047C0E4CB60C05FC05EC05DC05CC05BC089
:100010005AC059C058C057C056C000CD54C053C074
:1000200052C051C050C04FC04EC04DC04CC04BC05C
:100030004AC049C00002030507090A0C0E1011133B
:100040001516181A1C1D1F2122242527292A2C2D9C
:100050002F303234353638393B3C3E3F4042434402
:10006000454748494A4B4D4E4F50515253545556AF
:10007000575758595A5B5B5C5D5D5E5F5F606061BE
:1000800061616262626363636364646464646400A4
:1000900011241FBECFEFD4E0DEBFCDBF11E0A0E042
:1000A000B1E0E6EFFBE102C005900D92A037B10789
:1000B000D9F714E0A0E7B1E001C01D92A934B1075F
:1000C000E1F7E7D496CD9CCF68E671E001DD843B93
:1000D000910520F0845B90404FEF01C041E08A35EC
:1000E000910530F024EB30E0B901681B790BCB01AE
:1000F000FC01EC5CFF4F8491849F802D11240895B6
:100100002F923F924F925F926F927F928F929F9227
:10011000AF92BF92CF92DF92EF92FF920F931F9315
:10012000DF93CF9300D000D00F92CDB7DEB77B0125
:100130008C0197FF0BC010950095F094E094E11CA2
:10014000F11C011D111D8FEF898302C0E1E0E983DD
:10015000C801B70120E432E44FE050E002DDA22EF6
:10016000BB24CC24DD2480E1682E87E2782E812C0C
:10017000912CC801B701A4019301F3DC6A837B834E
:100180008C839D83C601B5012CE330E040E050E054
:1001900067DC1B012C01C601B50120EC3DEB40EFF3
:1001A0005FEF5EDC6E0D7F1D801F911FA401930128
:1001B000D8DC220E311C411C511C6A817B818C8150
:1001C0009D812CE330E040E050E04ADC5B016C01B3
:1001D000C201B10120E737E140E050E041DC7B01A2
:1001E0008C01C601B50124E630E040E050E097DC28
:1001F000E20EF31E041F151FF981FF3F41F4109515
:100200000095F094E094E11CF11C011D111DC80142
:10021000B7010F900F900F900F900F90CF91DF913B
:100220001F910F91FF90EF90DF90CF90BF90AF9014
:100230009F908F907F906F905F904F903F902F9006
:100240000895EDEAF3E0119283E0E83BF807D9F76F
:1002500008954F925F926F927F928F929F92AF928A
:10026000BF92CF92DF92EF92FF920F931F93DF9393
:10027000CF930F92CDB7DEB72C01C62E79018A013C
:1002800017FF07C022273327A9012E193F09400B6A
:10029000510BDD24D3946AE0862E912CA12CB12C35
:1002A00006C0CA01B901A50194015BDCD3942A30D0
:1002B000310541055105ACF717FDD3948C2D90E025
:1002C0009C012D0D311D213231050CF055C0480E19
:1002D000591E17FF0BC010950095F094E094E11C97
:1002E000F11C011D111D6FEF698301C019825201BC
:1002F0009AE0692E712C812C912CC801B701A401C0
:1003000093012FDC605DF50161935F018E2F8419ED
:1003100079018A01121613061406150674F3F98181
:10032000FF3F49F4E82FFF27E7FDF095E40DF51DA9
:100330009DE290838F5FE82FFF27E7FDF095E40DA6
:10034000F51D10828150582F569540E0282F30E03F
:10035000842F90E0D201A80FB91F6C91F901E81B1E
:10036000F90BE40DF51D80818C9360834F5F54176A
:1003700078F78D2D8C0D01C081E20F90CF91DF9128
:100380001F910F91FF90EF90DF90CF90BF90AF90B3
:100390009F908F907F906F905F904F9008950F93F4
:1003A0001F939C01062FFA01DA010D900020E9F756
:1003B00011971A2F141B862F90E0810F911D813207
:1003C00091050CF011E2412F50E0C901800F911D01
:1003D000BF01F0DB812F800F1F910F9108950F93C4
:1003E0001F93CF93DF93EC0134DF682FCE01A80178
:1003F000D6DFDF91CF911F910F910895FF920F9358
:100400001F9301E08091AD038D3209F000E0102FC1
:1004100020E030E0A90114C0CA01B9012AE030E0AF
:1004200040E050E01DDB2F2D30E0205330404427CA
:1004300037FD4095542F260F371F481F591F1F5F48
:10044000E12FF0E0E355FC4FF0808F2D80538A3090
:1004500010F41B3008F3002321F06FEF7FEFCB0186
:1004600004C061E070E080E090E0FADA1F910F9143
:10047000FF900895883108F56831F8F4482F4695C3
:100480004695469550E08095877021E030E002C0A7
:10049000220F331F8A95E2F7FA01EE0FFF1FE40FD8
:1004A000F51F73E0EE0FFF1F7A95E1F7E60FF11DE0
:1004B000E95BFC4F8081822B80830895FF920F932C
:1004C0001F93DF93CF9300D000D00F92CDB7DEB74C
:1004D000182F81E0982F911B99838A83812F819512
:1004E000880F8B831C821D83BBE0FB2EF10E8BE0FB
:1004F0006F2DC0DF0BE0011B8BE0602FBBDF8F2D6A
:100500006BE0B8DF802F6BE0B5DF1BE04BC089816B
:1005100087FD0AC08D8181508D838B818E5F8B8397
:1005200099818B81890F89838C818F5F8C838A81EC
:100530008E5F8A8399818A81890F89838C816D81FD
:10054000655F855F97DF8C816D81655F912F981B5B
:10055000892F90DF8C819D81612F691B855F8ADFE8
:100560008C819D81612F691B912F981B892F82DFC0
:100570008D816C81655F855F7DDF8D816C81655FBD
:10058000912F981B892F76DF8D819C81612F691BAC
:10059000855F70DF8D819C81612F691B912F981B76
:1005A000892F68DF9C818D8198170CF4B0CF0F9054
:1005B0000F900F900F900F90CF91DF911F910F919F
:1005C000FF900895AF92BF92CF92DF92EF92FF9289
:1005D0000F931F93382F562F142FA22FB0E0A61B76
:1005E000B109B7FF03C0B095A195BF4FE12FF0E06F
:1005F000E31BF109F7FF03C0F095E195FF4F01E020
:10060000EA17FB0714F000E006C0812F122F282FF5
:10061000832F352F582F131730F4852F522F282F63
:10062000832F312F182FF12EF31AE22FF0E0E51B64
:10063000F109F7FF03C0F095E195FF4FEE2E8F2DE6
:1006400062E039DAD82EB52E521718F4AA24A394F2
:1006500002C0AA24AA94C32E0EC0002319F08B2D29
:100660006C2D02C08C2D6B2D05DFDE18D7FE02C06D
:10067000BA0CDF0CC3941C1580F71F910F91FF90EB
:10068000EF90DF90CF90BF90AF900895FF920F93BF
:100690001F9301E08091AD038D3209F000E0102F2F
:1006A00020E030E0A901E12FF0E0E355FC4FF080BD
:1006B0008F2D80538A3028F5CA01B9012AE030E035
:1006C00040E050E0CDD92F2D30E02053304044277A
:1006D00037FD4095542F260F371F481F591F1F5FA6
:1006E0001B3008F3002321F06FEF7FEFCB0104C034
:1006F00061E070E080E090E0B3D91F910F91FF902E
:1007000008958F2D8E3259F3EDCF8091AB0388235E
:1007100001F58DEA93E060E071E045E050E03CDAFD
:10072000009731F481E08093AB0310926501089546
:100730008DEA93E066E071E045E050E02DDA009745
:1007400009F00AC182E08093AB0384E680936501DF
:1007500008958091AA03882309F4FEC08091650161
:100760008536E9F18636D8F4843009F469C08530DD
:1007700048F48230F1F1833008F045C0813009F04F
:10078000EBC02DC0863009F482C0863008F462C008
:10079000873009F480C0893009F0DEC080C08A3615
:1007A00009F458C08B3648F4883669F1893608F068
:1007B00047C0873609F0D0C01CC08C3609F488C009
:1007C0008C3608F472C08D3609F488C0883C09F074
:1007D000C3C0EDEAF3E080E090E0DC01AFC00EDEE4
:1007E00060939B0370939C0380939D0390939E035F
:1007F00008954CDF60939103709392038093930369
:100800009093940308958091AD03833509F0A4C0BB
:100810008091910390919203A0919303B0919403DE
:10082000B095A095909581959F4FAF4FBF4F809306
:10083000910390939203A0939303B093940308952C
:1008400025DF6093950370939603809397039093AD
:10085000980308958091AD03873509F07DC080919C
:10086000950390919603A0919703B0919803B0954A
:10087000A095909581959F4FAF4FBF4F8093950363
:1008800090939603A0939703B09398030895B6DDD1
:1008900060939F030895B2DD6093A0030895AEDDD9
:1008A00070939A03609399030895A8DD4FEC51E08B
:1008B000649F9001659F300D749F300D1124C90114
:1008C0006AEF70E005D97093A2036093A1030895C5
:1008D00095DD7093A4036093A30308958FDD609367
:1008E000A5037093A6038093A7039093A80308958C
:1008F00034E0880F991FAA1FBB1F3A95D1F7322FFA
:100900003154363020F430E0275330400FC0322FBE
:100910003156363020F430E02755304007C0322FB2
:1009200030533A3058F430E020533040442737FDFC
:100930004095542F820F931FA41FB51F219122238E
:1009400021F033E0E93BF30799F621E03091AC0365
:10095000381320E02093A90308956F927F928F921D
:100960009F92AF92BF92CF92DF92EF92FF920F933E
:100970001F93CF93DF93EC01D22E411551056105F2
:10098000710529F46CE044E151E009DD73C02223D4
:1009900059F014161506160617061CF48CE091E0A3
:1009A0000DC08EE091E00AC0141615061606170653
:1009B0001CF480E191E002C082E191E03C017A0107
:1009C0008B0177FF08C010950095F094E094E11C2E
:1009D000F11C011D111DC801B70120E432E44FE0F4
:1009E00050E0BFD8822E9924AA24BB24C501B401AB
:1009F00020EC3DEB40EF5FEF33D86E0D7F1D801F85
:100A0000911F24E630E040E050E02AD82CE330E0AB
:100A100040E050E084D8DD2039F076EEC72E74E156
:100A2000D72EE12CF12C06C060E9C62E6AE1D62E45
:100A3000E12CF12CC20ED31EE41EF51ECE016CE09B
:100A4000A501940100E211E0CADC682F80E1C8161C
:100A500087E2D80680E0E80680E0F80630F4CE01B0
:100A600020E030E0A901F5DB682FCE01A701960157
:100A70008301B5DCDF91CF911F910F91FF90EF9033
:100A8000DF90CF90BF90AF909F908F907F906F90AE
:100A90000895DF93CF93CDB7DEB763970FB6F89481
:100AA000DEBF0FBECDBF20E12BB988E08AB92998FF
:100AB0008CE084B980916F00816080936F00809199
:100AC000810082608093810083E08093690031E03F
:100AD0003DBB80E880BF10927B001EBC8DB58E7F31
:100AE0008DBD84E58CBDE0917401F0E0EE0FFF1F39
:100AF000ED5AFE4F8081918190937701809376012A
:100B000010927E0080917C00806480937C008091B4
:100B10007A00866080937A0010927B003093C50043
:100B200087E38093C40086E08093C2002093C100D5
:100B300078948091C00087FF74C00091C6009091A6
:100B400065019F3F21F4043209F06BC010C00432EC
:100B500071F0053230F40A3049F10D3009F04EC021
:100B600025C00A3299F00C3209F048C00AC0109230
:100B7000AA031092AB031092AC031092650161DBE3
:100B800050C08091AC0380278093AC03BEDD59DB5D
:100B90001092AA03809165018F5F809365010A32EC
:100BA00009F03FC088EC809365013BC0AEDD8FEF5C
:100BB000809365018091A903882399F1A8EBB3E0A4
:100BC000E1E9F3E089E101900D928150E1F781E0E4
:100BD0008093D1038091D2039091D3039093D50356
:100BE0008093D4038091C8039091C9038330910509
:100BF000C0F0109266011092D60313C08091AA0330
:100C0000E82FF0E0E355FC4F0083983C29F09091E9
:100C1000AC0390279093AC038A3018F48F5F8093D5
:100C2000AA034C9925C081E080938F0380919003A3
:100C3000833330F1109290035B9A8091A90388234B
:100C4000F9F080919F038823D9F0A8EDB3E0E8EB99
:100C5000F3E08AE001900D928150E1F781E080930A
:100C6000D7031092E2031092D2031092D30308C06C
:100C700080918F0381115B9810928F0310929003E3
:100C800080917501823009F07AC0109275018091CF
:100C9000740190E0FC0125E0EE0FFF1F2A95E1F7BB
:100CA000E80FF91FE758FE4F83EEE82E83E0F82E99
:100CB000D70180E090E021912032E1F02223D1F0B1
:100CC0002B3550F4822F90E003E0880F991F0A958E
:100CD000E1F78852914010C0322F3556393060F418
:100CE000822F90E013E0880F991F1A95E1F7805743
:100CF000914002C08FEF9FEF8D939D9304E0A5324A
:100D0000B007C9F680E090E078E0A72ECC24CA9422
:100D10004C01D7010D911D917D01809167019927AB
:100D200087FD90958017910761F0BFEF0F3F1B077C
:100D300071F085E294E0B80148E050E04AD70093B2
:100D40006701A5E2B4E0F401E15CFD4F09C0E5E212
:100D5000F4E00A2D11920A95E9F7C0926701F1CFEC
:100D60008D918083B19614E0AD32B107C9F7089434
:100D7000811C911C21E28216910459F6DACE8091F1
:100D80007501813009F0D5CE1092750180918F03E5
:100D9000882329F0809190038F5F80939003809146
:100DA000E20362E37CD6992309F0DDC280919F03C0
:100DB000882311F05B9A04C08BB198E089278BB926
:100DC0008091D703882309F4E4C1E090B803F09040
:100DD000B9030091BA031091BB032090BC0330907B
:100DE000BD034090BE035090BF03A090D803B090C5
:100DF000D903C090DA03D090DB038091DC0390919B
:100E0000DD03A091DE03B091DF0389839A83AB8376
:100E1000BC83EA14FB040C051D0591F42816390661
:100E20004A065B0669F410922D0410922E0410926B
:100E30002F04109230041092320410923104A9C190
:100E4000C601B5016E0D7F1D801F911F97FF07C062
:100E500090958095709561957F4F8F4F9F4F20E8BB
:100E600034E84EE150E05BD6C901865A9F4F2CD939
:100E70008D83C801B70144D96E837F8388879987A2
:100E8000C601B5013DD93B014C01C201B10138D9C0
:100E90007B018C0169817A818B819C8131D99B0195
:100EA000AC012E193F09400B510BEE80FF800885E5
:100EB00019856E187F08800A910AFD806F2D7727AB
:100EC00067FD7095872F972FCBD524E630E040E063
:100ED00050E047D619012A0162E0E62EF12C012DDF
:100EE000112DCC24C3940FC0C201B101A8019701F8
:100EF00038D619012A01C401B301A801970131D6DE
:100F000039014A01CC0CA201910157FE07C02227EA
:100F10003327A90122193309440955092F3F6FEFDF
:100F2000360760E0460760E05607F0F6D401C301DB
:100F300097FE07C088279927DC0186199709A80919
:100F4000B9098F3FEFEF9E07E0E0AE07E0E0BE0794
:100F500058F6C9822A873B874C875D878E879F8793
:100F6000A88BB98BC201B101A201910179D55B01B6
:100F70006C01C401B301A401930172D5E1E00FC07B
:100F800052E0D694C794B794A7945A95D1F742E00B
:100F900096958795779567954A95D1F7EE0FE92E47
:100FA000FF24002711272D2D332744275527E20E34
:100FB000F31E041F151F2FEFE216F10401051105A2
:100FC00009F0F0F6ED837B018C01EA0CFB1C0C1D93
:100FD0001D1DEE82FF820887198757016801D6948C
:100FE000C794B794A794A114B104C104D10461F1CA
:100FF00080E090E09B8B8A8B02C0570168016E8174
:101000007F8188859985A601950189D579018A0115
:10101000EA0CFB1C0C1D1D1D16950795F794E79413
:10102000AE18BF08C00AD10A22E0A216B104C1045A
:10103000D10470F04A895B894F5F5F4F5B8B4A8BAD
:101040004A315105D1F604C0EE80FF80088519852C
:101050006D81262F30E040E050E0C801B70100D597
:101060006B017C01611571058105910509F46AC068
:101070008A859B85AC85BD850E851F852889398924
:1010800080179107A207B307D8F0C901B80124E679
:1010900030E040E050E0E4D4A701960140D5022FB3
:1010A00020E030E0590103C00894A11CB11CC50127
:1010B0000BD808171CF11AE5A116B104A9F71EC038
:1010C0006A857B858C859D8524E630E040E050E094
:1010D000C7D4A701960123D5A22E00E010E002C0DC
:1010E0000F5F1F4FC801F0D7A8161CF00A35110575
:1010F000B9F72AE530E0201B310B01C095016114DE
:1011000071048104910429F457FC1FC08AE590E022
:101110001EC016141704180419044CF457FC03C01D
:101120008AE590E00CC0C901825F9E4F10C057FC59
:1011300004C0C901865A9F4F0AC08EE091E0821B0D
:10114000930B05C080E090E002C08EE091E09093A8
:10115000320480933104C701B60125E331E040E059
:1011600050E07ED428EE33E040E050E0D8D479015E
:101170008A016981262F30E040E050E0C801B701C4
:101180006FD460932D0470932E0480932F0490935A
:10119000300403E3A02E04E0B02E18E6612E11E027
:1011A000712EBCE62B2EB1E03B2E8BE394E0CC24D9
:1011B0004C0180917C00807F80937C0080917C003A
:1011C0008C2980937C0080917A00806A80937A00D9
:1011D00080917A00806480937A0080917A0084FF05
:1011E000FCCF80917A00806180937A0080917A00B0
:1011F0008F7580937A006091780070917900D501A5
:101200006D937D935D0180E090E026E331E040E066
:1012100050E026D42AE030E040E050E080D479016C
:101220008A01F30121913F0130E040E050E0C80124
:10123000B70116D4D1012D911D0130E040E050E0FE
:101240006ED479018A01AAE016950795F794E79480
:10125000AA95D1F7E982FA820B831C838E2D90E048
:10126000982F8827990F990FA0E0B0E079018A01A3
:10127000E81AF90A0A0B1B0BC801B70124E630E093
:1012800040E050E0EDD3EAE0969587957795679535
:10129000EA95D1F7D4016C93E9811196EC931197FB
:1012A000C39452E0E52EF12C8E0C9F1C0C2D0430C3
:1012B00009F07FCF80913B0490913C0490934404CB
:1012C000809343049091400484E6989FC0011124C8
:1012D00020913F04820F911D11E0853F910798F402
:1012E0008937910598F0AC014857504024E630E02A
:1012F000429FC001439F900D529F900D11246CE7B7
:1013000071E0E6D305C064E670E002C060E070E022
:10131000609345049091440484E6989FC001112491
:1013200020914304820F911D21E033E0883E930712
:1013300008F020E020934604109247048091C803EF
:101340009091C9038330910538F48091D6038A3097
:1013500018F48F5F8093D6038091D6038A3019F4F6
:1013600081E0809366018091E2038F5F8093E203C6
:101370008091E203823378F01092E2038091D203ED
:101380008F5F8093D2038091480490E00196817032
:101390009070809348048091D2038C3338F010927F
:1013A000D2038091D3038F5F8093D3038091D303C3
:1013B0008C3310F01092D3034AE9E42E41E0F42E6E
:1013C00080E090E030E3632E2EE2222E67015C0184
:1013D00056C11192EC15FD05E1F78A2DAA20C9F539
:1013E00089E791E060E042E251E0D9D7809145047D
:1013F000882331F489E791E068E045E251E0CFD7F6
:101400008091C0039091C1032091E0033091E103EA
:10141000821B930B4EE48032940764F44091B8032E
:101420005091B9036091BA037091BB0389E791E0D1
:1014300021E093DA8091A903882329F4809148045C
:10144000882309F40CC189E791E06BE147E251E0A0
:10145000B2C0813009F071C08AE991E060E249E2EE
:1014600051E09DD780914604882321F08091480463
:10147000882361F1E0903B04FF2400E010E020911C
:101480003C0430E040E050E08AE991E060E0E1D6E1
:10149000E82FF0E0E656FE4F2082682F6F5F5AE09B
:1014A000E516F1040105110534F4E62FF0E0E656E7
:1014B000FE4F60826F5F8AE991E0A8019701C9D66B
:1014C000682F8AE991E04AE251E069D7209145040A
:1014D00030E040E050E08AE991E068E00CE211E0A1
:1014E0007ED78091C0039091C1032091E003309199
:1014F000E103821B930B6EE48032960764F4409103
:10150000BC035091BD036091BE037091BF038AE993
:1015100091E020E022DA8091C603882341F02091F7
:10152000C70330E040E050E08AE991E030C08AE94A
:1015300091E06BE14EE251E03EC0823051F5809186
:10154000D703882351F480914804882331F08BEB32
:1015500091E06AE040E351E022D72091C803309146
:10156000C90340E050E08BEB91E060E072D620913F
:10157000C0033091C1038091E0039091E103281BE7
:10158000390B442737FD4095542F8BEB91E06BE1ED
:1015900065C0833091F480916601882309F05FC0B3
:1015A0008CED91E060E04CE351E0F9D68CED91E0F8
:1015B0006BE141E451E0F3D652C0843009F44FC0EE
:1015C0008091D703882369F48EE192E060E046E4DD
:1015D00051E0E5D68EE192E065E04EE251E0DFD6E3
:1015E00012C08EE192E060E046E451E0D8D620914E
:1015F0002D0430912E0440912F04509130048EE13F
:1016000092E065E026D68EE192E06AE04BE451E09C
:10161000C6D68091D3038A3020F4609239026CE1FF
:1016200001C06BE12091D30330E040E050E08EE157
:1016300092E00EE411E0D3D6682F8091D2038A3075
:1016400030F4E62FF0E0E25EFD4F60826F5F2091A4
:10165000D20330E040E050E08EE192E0FAD5089409
:10166000A11CB11C81E290E0C80ED91E96E0A9161B
:10167000B10429F42FE533E080E090E016C0F501D5
:1016800085E0EE0FFF1F8A95E1F7EA0DFB1DE75895
:10169000FE4F9FCE1192E217F307E1F701969F01EB
:1016A000285E3F4F8330910569F0FC01EE0FFF1F6C
:1016B000E80FF91F13E0EE0FFF1F1A95E1F7E95B42
:1016C000FC4FE8CFE0903104F09032048091CA03DF
:1016D0009091CB03E81AF90A8BE0F0D680912D04A3
:1016E00090912E04A0912F04B09130048A3091057E
:1016F000A105B10518F482E0E1D61BCA8091C803A8
:101700009091C9038330910520F080919F03882335
:1017100051F485E065E041E121E154D785E061E1E4
:1017200041E125E051C0C701865A9F4FCDD4082F13
:10173000C701CAD4E82F402F552747FD5095B3E085
:10174000440F551FBA95E1F724E630E0CA01B9010C
:10175000D3D18B018E2F992787FD9095A3E0880F19
:10176000991FAA95E1F7B901C7D15B01602FFBE092
:10177000CF2ECA0C8BE0E82EE01A655F8A194C2D3B
:101780002E2D20D7E2E08E2E912CC801B401B4D1C9
:10179000709561957F4F462F455FC501B401ACD16F
:1017A000709561957F4F262F255F8C2D6E2D0AD762
:1017B000C801B401A1D1462F455FC501B4019CD138
:1017C000262F255F8C2D6E2DFDD6B3C91F920F924B
:1017D0000FB60F9211242F933F934F935F936F9304
:1017E0007F938F939F93AF93BF93EF93FF93109249
:1017F00085001092840088E28A95F1F7809170014B
:10180000909171014A99F2C0009709F47FC08091CC
:101810007301813021F0823009F078C04AC0909184
:101820007401E8E1EA95F1F7292F30E0F90175E05C
:10183000EE0FFF1F7A95E1F7E20FF31FE758FE4F17
:10184000A091780181E2A89FD0011124A15CBD4F35
:10185000989FC001112486569E4F2191203221F07D
:10186000222311F0219A02C0219800002D912EBD53
:101870000000000000000000000000000000000068
:101880000000000000000000000000000000000058
:101890000000E817F90709F7000000000000000049
:1018A0000000000000000000000000001EBC2198A5
:1018B0002DC083E191E00197F1F700C00000E091B5
:1018C0007801F0E0E95BFC4F83E090819EBD219AB6
:1018D0000000000000000000000000000000000008
:1018E00000000000000000000000000000000000F8
:1018F0000000000000000000000000000000815017
:101900007896882311F7219800001EBC109273016D
:101910008091700190917101019690937101809373
:1019200070018E36910511F421E004C08F369105C7
:1019300019F422E02093750120917601309177010E
:1019400082179307A0F040915001509151018417E4
:10195000950768F441E040937301821B80937801FE
:1019600090915201923009F048C0869531C0209183
:101970005001309151018217930769F582E08093FD
:1019800075018091740190E0019666E070E0B4D03A
:1019900080937401FC01EE0FFF1FED5AFE4F208172
:1019A00031813093770120937601815A9E4FFC015B
:1019B00080818093520190E053E0880F991F5A95DF
:1019C000E1F7820F931F909351018093500181E0C2
:1019D0008093780112C09C0129563040283131058E
:1019E00060F422E0209373018956F2CF893C91057F
:1019F00020F01092710110927001FF91EF91BF9150
:101A0000AF919F918F917F916F915F914F913F9196
:101A10002F910F900FBE0F901F9018951F920F924D
:101A20000FB60F9211242F933F938F939F93809122
:101A30007001909171012091720130E028173907EF
:101A400021F42BB138E023272BB9809372019F91A9
:101A50008F913F912F910F900FBE0F901F9018956F
:101A6000629FD001739FF001829FE00DF11D649F82
:101A7000E00DF11D929FF00D839FF00D749FF00D0E
:101A8000659FF00D9927729FB00DE11DF91F639FAF
:101A9000B00DE11DF91FBD01CF0111240895991B5F
:101AA00079E004C0991F961708F0961B881F7A9555
:101AB000C9F78095089587FB082E062687FD819536
:101AC00067FD6195ECDF0EF4919507FC8195089513
:101AD000AA1BBB1B51E107C0AA1FBB1FA617B70754
:101AE00010F0A61BB70B881F991F5A95A9F7809570
:101AF0009095BC01CD01089597FB092E07260AD0C9
:101B000077FD04D0E5DF06D000201AF470956195CA
:101B10007F4F0895F6F7909581959F4F0895A1E224
:101B20001A2EAA1BBB1BFD010DC0AA1FBB1FEE1F57
:101B3000FF1FA217B307E407F50720F0A21BB30BA2
:101B4000E40BF50B661F771F881F991F1A9469F71E
:101B500060957095809590959B01AC01BD01CF017A
:101B6000089597FB092E05260ED057FD04D0D7DF28
:101B70000AD0001C38F450954095309521953F4F80
:101B80004F4F5F4F0895F6F790958095709561954A
:101B90007F4F8F4F9F4F0895FB01DC014150504014
:101BA00030F08D910190801919F40020B9F7881B4D
:101BB000990B0895FB01DC014150504048F0019021
:101BC0000D920020C9F701C01D9241505040E0F72E
:101BD0000895DC01CB01FC01F999FECF06C0F2BDEE
:101BE000E1BDF89A319600B40D9241505040B8F7DB
:061BF0000895F894FFCFF8
:101BF6004750474741004750524D43004E0053005F
:101C0600450057002D2D2E2D2D2D2D2D2D2D3F0030
:101C16002E006A31006900680000560025002D007C
:101C26004E4F20484F4D4520504F53004B4D2F48A7
:101C3600004D5420200044495354004D54003A00AE
:101C460002000232004200AA00CD00FF0018010186
:101C56000201010201FF01FF01010101010106016B
:00000001FF
