:1000000047C0E3CB60C05FC05EC05DC05CC05BC08A
:100010005AC059C058C057C056C0FFCC54C053C076
:1000200052C051C050C04FC04EC04DC04CC04BC05C
:100030004AC049C00002030507090A0C0E1011133B
:100040001516181A1C1D1F2122242527292A2C2D9C
:100050002F303234353638393B3C3E3F4042434402
:10006000454748494A4B4D4E4F50515253545556AF
:10007000575758595A5B5B5C5D5D5E5F5F606061BE
:1000800061616262626363636364646464646400A4
:1000900011241FBECFEFD4E0DEBFCDBF11E0A0E042
:1000A000B1E0E4EFFBE102C005900D92AA37B10781
:1000B000D9F714E0AAE7B1E001C01D92A335B1075A
:1000C000E1F7E7D495CD9CCF68E671E000DD843B95
:1000D000910520F0845B90404FEF01C041E08A35EC
:1000E000910530F024EB30E0B901681B790BCB01AE
:1000F000FC01EC5CFF4F8491849F802D11240895B6
:100100002F923F924F925F926F927F928F929F9227
:10011000AF92BF92CF92DF92EF92FF920F931F9315
:10012000DF93CF9300D000D00F92CDB7DEB77B0125
:100130008C0197FF0BC010950095F094E094E11CA2
:10014000F11C011D111D8FEF898302C0E1E0E983DD
:10015000C801B70120E432E44FE050E001DDA22EF7
:10016000BB24CC24DD2480E1682E87E2782E812C0C
:10017000912CC801B701A4019301F2DC6A837B834F
:100180008C839D83C601B5012CE330E040E050E054
:1001900066DC1B012C01C601B50120EC3DEB40EFF4
:1001A0005FEF5DDC6E0D7F1D801F911FA401930129
:1001B000D7DC220E311C411C511C6A817B818C8151
:1001C0009D812CE330E040E050E049DC5B016C01B4
:1001D000C201B10120E737E140E050E040DC7B01A3
:1001E0008C01C601B50124E630E040E050E096DC29
:1001F000E20EF31E041F151FF981FF3F41F4109515
:100200000095F094E094E11CF11C011D111DC80142
:10021000B7010F900F900F900F900F90CF91DF913B
:100220001F910F91FF90EF90DF90CF90BF90AF9014
:100230009F908F907F906F905F904F903F902F9006
:100240000895E7EBF3E0119283E0E23CF807D9F779
:1002500008954F925F926F927F928F929F92AF928A
:10026000BF92CF92DF92EF92FF920F931F93DF9393
:10027000CF930F92CDB7DEB72C01C62E79018A013C
:1002800017FF07C022273327A9012E193F09400B6A
:10029000510BDD24D3946AE0862E912CA12CB12C35
:1002A00006C0CA01B901A50194015ADCD3942A30D1
:1002B000310541055105ACF717FDD3948C2D90E025
:1002C0009C012D0D311D213231050CF055C0480E19
:1002D000591E17FF0BC010950095F094E094E11C97
:1002E000F11C011D111D6FEF698301C019825201BC
:1002F0009AE0692E712C812C912CC801B701A401C0
:1003000093012EDC605DF50161935F018E2F8419EE
:1003100079018A01121613061406150674F3F98181
:10032000FF3F49F4E82FFF27E7FDF095E40DF51DA9
:100330009DE290838F5FE82FFF27E7FDF095E40DA6
:10034000F51D10828150582F569540E0282F30E03F
:10035000842F90E0D201A80FB91F6C91F901E81B1E
:10036000F90BE40DF51D80818C9360834F5F54176A
:1003700078F78D2D8C0D01C081E20F90CF91DF9128
:100380001F910F91FF90EF90DF90CF90BF90AF90B3
:100390009F908F907F906F905F904F9008950F93F4
:1003A0001F939C01062FFA01DA010D900020E9F756
:1003B00011971A2F141B862F90E0810F911D813207
:1003C00091050CF011E2412F50E0C901800F911D01
:1003D000BF01EFDB812F800F1F910F9108950F93C5
:1003E0001F93CF93DF93EC0134DF682FCE01A80178
:1003F000D6DFDF91CF911F910F910895FF920F9358
:100400001F9301E08091B7038D3209F000E0102FB7
:1004100020E030E0A90114C0CA01B9012AE030E0AF
:1004200040E050E01CDB2F2D30E0205330404427CB
:1004300037FD4095542F260F371F481F591F1F5F48
:10044000E12FF0E0E954FC4FF0808F2D80538A308B
:1004500010F41B3008F3002321F06FEF7FEFCB0186
:1004600004C061E070E080E090E0F9DA1F910F9144
:10047000FF900895883108F56831F8F4482F4695C3
:100480004695469550E08095877021E030E002C0A7
:10049000220F331F8A95E2F7FA01EE0FFF1FE40FD8
:1004A000F51F73E0EE0FFF1F7A95E1F7E60FF11DE0
:1004B000EF5AFC4F8081822B80830895FF920F9327
:1004C0001F93DF93CF9300D000D00F92CDB7DEB74C
:1004D000182F81E0982F911B99838A83812F819512
:1004E000880F8B831C821D83BBE0FB2EF10E8BE0FB
:1004F0006F2DC0DF0BE0011B8BE0602FBBDF8F2D6A
:100500006BE0B8DF802F6BE0B5DF1BE04BC089816B
:1005100087FD0AC08D8181508D838B818E5F8B8397
:1005200099818B81890F89838C818F5F8C838A81EC
:100530008E5F8A8399818A81890F89838C816D81FD
:10054000655F855F97DF8C816D81655F912F981B5B
:10055000892F90DF8C819D81612F691B855F8ADFE8
:100560008C819D81612F691B912F981B892F82DFC0
:100570008D816C81655F855F7DDF8D816C81655FBD
:10058000912F981B892F76DF8D819C81612F691BAC
:10059000855F70DF8D819C81612F691B912F981B76
:1005A000892F68DF9C818D8198170CF4B0CF0F9054
:1005B0000F900F900F900F90CF91DF911F910F919F
:1005C000FF900895AF92BF92CF92DF92EF92FF9289
:1005D0000F931F93382F562F142FA22FB0E0A61B76
:1005E000B109B7FF03C0B095A195BF4FE12FF0E06F
:1005F000E31BF109F7FF03C0F095E195FF4F01E020
:10060000EA17FB0714F000E006C0812F122F282FF5
:10061000832F352F582F131730F4852F522F282F63
:10062000832F312F182FF12EF31AE22FF0E0E51B64
:10063000F109F7FF03C0F095E195FF4FEE2E8F2DE6
:1006400062E038DAD82EB52E521718F4AA24A394F3
:1006500002C0AA24AA94C32E0EC0002319F08B2D29
:100660006C2D02C08C2D6B2D05DFDE18D7FE02C06D
:10067000BA0CDF0CC3941C1580F71F910F91FF90EB
:10068000EF90DF90CF90BF90AF900895FF920F93BF
:100690001F9301E08091B7038D3209F000E0102F25
:1006A00020E030E0A901E12FF0E0E954FC4FF080B8
:1006B0008F2D80538A3028F5CA01B9012AE030E035
:1006C00040E050E0CCD92F2D30E02053304044277B
:1006D00037FD4095542F260F371F481F591F1F5FA6
:1006E0001B3008F3002321F06FEF7FEFCB0104C034
:1006F00061E070E080E090E0B2D91F910F91FF902F
:1007000008958F2D8E3259F3EDCF8091B503882354
:1007100001F587EB93E060E071E045E050E03BDA03
:10072000009731F481E08093B50310926E01089533
:1007300087EB93E066E071E045E050E02CDA00974B
:1007400009F00AC182E08093B50384E680936E01CC
:1007500008958091B403882309F4FEC080916E014E
:100760008536E9F18636D8F4843009F469C08530DD
:1007700048F48230F1F1833008F045C0813009F04F
:10078000EBC02DC0863009F482C0863008F462C008
:10079000873009F480C0893009F0DEC080C08A3615
:1007A00009F458C08B3648F4883669F1893608F068
:1007B00047C0873609F0D0C01CC08C3609F488C009
:1007C0008C3608F472C08D3609F488C0883C09F074
:1007D000C3C0E7EBF3E080E090E0DC01AFC00EDEE9
:1007E0006093A5037093A6038093A7039093A80337
:1007F00008954CDF60939B0370939C0380939D034B
:1008000090939E0308958091B703833509F0A4C0A7
:1008100080919B0390919C03A0919D03B0919E03B6
:10082000B095A095909581959F4FAF4FBF4F809306
:100830009B0390939C03A0939D03B0939E03089504
:1008400025DF60939F037093A0038093A10390938F
:10085000A20308958091B703873509F07DC0809188
:100860009F039091A003A091A103B091A203B09522
:10087000A095909581959F4FAF4FBF4F80939F0359
:100880009093A003A093A103B093A2030895B6DDB3
:100890006093A9030895B2DD6093AA030895AEDDC5
:1008A0007093A4036093A3030895A8DD4FEC51E077
:1008B000649F9001659F300D749F300D1124C90114
:1008C0006AEF70E004D97093AC036093AB030895B2
:1008D00095DD7093AE036093AD0308958FDD609353
:1008E000AF037093B0038093B1039093B203089564
:1008F00034E0880F991FAA1FBB1F3A95D1F7322FFA
:100900003154363020F430E0275330400FC0322FBE
:100910003156363020F430E02755304007C0322FB2
:1009200030533A3058F430E020533040442737FDFC
:100930004095542F820F931FA41FB51F219122238E
:1009400021F033E0E33CF30799F621E03091B60360
:10095000381320E02093B30308956F927F928F9213
:100960009F92AF92BF92CF92DF92EF92FF920F933E
:100970001F93CF93DF93EC01D22E411551056105F2
:10098000710529F46CE044E151E009DD73C02223D4
:1009900059F014161506160617061CF48CE091E0A3
:1009A0000DC08EE091E00AC0141615061606170653
:1009B0001CF480E191E002C082E191E03C017A0107
:1009C0008B0177FF08C010950095F094E094E11C2E
:1009D000F11C011D111DC801B70120E432E44FE0F4
:1009E00050E0BED8822E9924AA24BB24C501B401AC
:1009F00020EC3DEB40EF5FEF32D86E0D7F1D801F86
:100A0000911F24E630E040E050E029D82CE330E0AC
:100A100040E050E083D8DD2039F076EEC72E74E157
:100A2000D72EE12CF12C06C060E9C62E6AE1D62E45
:100A3000E12CF12CC20ED31EE41EF51ECE016CE09B
:100A4000A501940100E211E0CADC682F80E1C8161C
:100A500087E2D80680E0E80680E0F80630F4CE01B0
:100A600020E030E0A901F5DB682FCE01A701960157
:100A70008301B5DCDF91CF911F910F91FF90EF9033
:100A8000DF90CF90BF90AF909F908F907F906F90AE
:100A90000895DF93CF93CDB7DEB763970FB6F89481
:100AA000DEBF0FBECDBF20E12BB988E08AB92998FF
:100AB0008CE084B980916F00816080936F00809199
:100AC000810082608093810083E08093690031E03F
:100AD0003DBB80E880BF10927B001EBC8DB58E7F31
:100AE0008DBD84E58CBDE0917E01F0E0EE0FFF1F2F
:100AF000E45AFE4F8081918190938101809380011F
:100B000010927E0080917C00806480937C008091B4
:100B10007A00866080937A0010927B003093C50043
:100B200087E38093C40086E08093C2002093C100D5
:100B300078948091C00087FF74C00091C6009091A6
:100B40006E019F3F21F4043209F06BC010C00432E3
:100B500071F0053230F40A3049F10D3009F04EC021
:100B600025C00A3299F00C3209F048C00AC0109230
:100B7000B4031092B5031092B60310926E0161DBBC
:100B800050C08091B60380278093B603BEDD59DB49
:100B90001092B40380916E018F5F80936E010A32D0
:100BA00009F03FC088EC80936E013BC0AEDD8FEF53
:100BB00080936E018091B303882399F1A2ECB3E096
:100BC000EBE9F3E089E101900D928150E1F781E0DA
:100BD0008093DB038091DC039091DD039093DF032E
:100BE0008093DE038091D2039091D30383309105EB
:100BF000C0F010926F011092E00313C08091B40313
:100C0000E82FF0E0E954FC4F0083983C29F09091E4
:100C1000B60390279093B6038A3018F48F5F8093C1
:100C2000B4034C9925C081E08093990380919A0385
:100C3000833330F110929A035B9A8091B303882337
:100C4000F9F08091A9038823D9F0A2EEB3E0E2EC99
:100C5000F3E08AE001900D928150E1F781E080930A
:100C6000E1031092EC031092DC031092DD0308C044
:100C70008091990381115B981092990310929A03C5
:100C800080917F01823009F07AC010927F018091BB
:100C90007E0190E0FC0125E0EE0FFF1F2A95E1F7B1
:100CA000E80FF91FED57FE4F8DEEE82E83E0F82E8A
:100CB000D70180E090E021912032E1F02223D1F0B1
:100CC0002B3550F4822F90E003E0880F991F0A958E
:100CD000E1F78852914010C0322F3556393060F418
:100CE000822F90E013E0880F991F1A95E1F7805743
:100CF000914002C08FEF9FEF8D939D9304E0AF3240
:100D0000B007C9F680E090E078E0A72ECC24CA9422
:100D10004C01D7010D911D917D01809170019927A2
:100D200087FD90958017910761F0BFEF0F3F1B077C
:100D300071F08FE294E0B80148E050E049D70093A9
:100D40007001AFE2B4E0F401E75BFD4F09C0EFE2F0
:100D5000F4E00A2D11920A95E9F7C0927001F1CFE3
:100D60008D918083B19614E0A733B107C9F7089439
:100D7000811C911C21E28216910459F6DACE8091F1
:100D80007F01813009F0D5CE10927F0180919903C7
:100D9000882329F080919A038F5F80939A03809132
:100DA000EC0362E37BD6992309F0DDC28091A903AD
:100DB000882311F05B9A04C08BB198E089278BB926
:100DC0008091E103882309F4E4C1E090C203F0902C
:100DD000C3030091C4031091C5032090C603309053
:100DE000C7034090C8035090C903A090E203B0909D
:100DF000E303C090E403D090E5038091E603909173
:100E0000E703A091E803B091E90389839A83AB8358
:100E1000BC83EA14FB040C051D0591F42816390661
:100E20004A065B0669F41092370410923804109257
:100E3000390410923A0410923C0410923B04A9C168
:100E4000C601B5016E0D7F1D801F911F97FF07C062
:100E500090958095709561957F4F8F4F9F4F20E8BB
:100E600034E84EE150E05AD6C901865A9F4F2CD93A
:100E70008D83C801B70144D96E837F8388879987A2
:100E8000C601B5013DD93B014C01C201B10138D9C0
:100E90007B018C0169817A818B819C8131D99B0195
:100EA000AC012E193F09400B510BEE80FF800885E5
:100EB00019856E187F08800A910AFD806F2D7727AB
:100EC00067FD7095872F972FCAD524E630E040E064
:100ED00050E046D619012A0162E0E62EF12C012DE0
:100EE000112DCC24C3940FC0C201B101A8019701F8
:100EF00037D619012A01C401B301A801970130D6E0
:100F000039014A01CC0CA201910157FE07C02227EA
:100F10003327A90122193309440955092F3F6FEFDF
:100F2000360760E0460760E05607F0F6D401C301DB
:100F300097FE07C088279927DC0186199709A80919
:100F4000B9098F3FEFEF9E07E0E0AE07E0E0BE0794
:100F500058F6C9822A873B874C875D878E879F8793
:100F6000A88BB98BC201B101A201910178D55B01B7
:100F70006C01C401B301A401930171D5E1E00FC07C
:100F800052E0D694C794B794A7945A95D1F742E00B
:100F900096958795779567954A95D1F7EE0FE92E47
:100FA000FF24002711272D2D332744275527E20E34
:100FB000F31E041F151F2FEFE216F10401051105A2
:100FC00009F0F0F6ED837B018C01EA0CFB1C0C1D93
:100FD0001D1DEE82FF820887198757016801D6948C
:100FE000C794B794A794A114B104C104D10461F1CA
:100FF00080E090E09B8B8A8B02C0570168016E8174
:101000007F8188859985A601950188D579018A0116
:10101000EA0CFB1C0C1D1D1D16950795F794E79413
:10102000AE18BF08C00AD10A22E0A216B104C1045A
:10103000D10470F04A895B894F5F5F4F5B8B4A8BAD
:101040004A315105D1F604C0EE80FF80088519852C
:101050006D81262F30E040E050E0C801B701FFD499
:101060006B017C01611571058105910509F46AC068
:101070008A859B85AC85BD850E851F852889398924
:1010800080179107A207B307D8F0C901B80124E679
:1010900030E040E050E0E3D4A70196013FD5022FB5
:1010A00020E030E0590103C00894A11CB11CC50127
:1010B0000BD808171CF11AE5A116B104A9F71EC038
:1010C0006A857B858C859D8524E630E040E050E094
:1010D000C6D4A701960122D5A22E00E010E002C0DE
:1010E0000F5F1F4FC801F0D7A8161CF00A35110575
:1010F000B9F72AE530E0201B310B01C095016114DE
:1011000071048104910429F457FC1FC08AE590E022
:101110001EC016141704180419044CF457FC03C01D
:101120008AE590E00CC0C901825F9E4F10C057FC59
:1011300004C0C901865A9F4F0AC08EE091E0821B0D
:10114000930B05C080E090E002C08EE091E09093A8
:101150003C0480933B04C701B60125E331E040E045
:1011600050E07DD428EE33E040E050E0D7D4790160
:101170008A016981262F30E040E050E0C801B701C4
:101180006ED460933704709338048093390490933D
:101190003A040DE3A02E04E0B02E11E7612E11E019
:1011A000712EB5E72B2EB1E03B2E85E494E0CC24E4
:1011B0004C0180917C00807F80937C0080917C003A
:1011C0008C2980937C0080917A00806A80937A00D9
:1011D00080917A00806480937A0080917A0084FF05
:1011E000FCCF80917A00806180937A0080917A00B0
:1011F0008F7580937A006091780070917900D501A5
:101200006D937D935D0180E090E026E331E040E066
:1012100050E025D42AE030E040E050E07FD479016E
:101220008A01F30121913F0130E040E050E0C80124
:10123000B70115D4D1012D911D0130E040E050E0FF
:101240006DD479018A01AAE016950795F794E79481
:10125000AA95D1F7E982FA820B831C838E2D90E048
:10126000982F8827990F990FA0E0B0E079018A01A3
:10127000E81AF90A0A0B1B0BC801B70124E630E093
:1012800040E050E0ECD3EAE0969587957795679536
:10129000EA95D1F7D4016C93E9811196EC931197FB
:1012A000C39452E0E52EF12C8E0C9F1C0C2D0430C3
:1012B00009F07FCF809145049091460490934E04AD
:1012C00080934D0490914A0484E6989FC0011124B4
:1012D00020914904820F911D11E0853F910798F4F8
:1012E0008937910598F0AC014857504024E630E02A
:1012F000429FC001439F900D529F900D11246CE7B7
:1013000071E0E5D305C064E670E002C060E070E023
:1013100060934F0490914E0484E6989FC00111247D
:1013200020914D04820F911D21E033E0883E930708
:1013300008F020E020935004109251048091D203D1
:101340009091D3038330910538F48091E0038A3083
:1013500018F48F5F8093E0038091E0038A3019F4E2
:1013600081E080936F018091EC038F5F8093EC03A9
:101370008091EC03823378F01092EC038091DC03CF
:101380008F5F8093DC038091520490E0019681701E
:101390009070809352048091DC038C3338F010926B
:1013A000DC038091DD038F5F8093DD038091DD039B
:1013B0008C3310F01092DD0344EAE42E41E0F42E69
:1013C00080E090E030E3632E2EE2222E67015C0184
:1013D00055C11192EC15FD05E1F78A2DAA20C9F53A
:1013E00083E891E060E042E251E0D9D780914F0478
:1013F000882331F483E891E068E045E251E0CFD7FB
:101400008091CA039091CB032091EA033091EB03C2
:10141000821B930B4EE48032940764F44091C20324
:101420005091C3036091C4037091C50383E891E0B8
:1014300021E093DA8091B303882329F48091520448
:10144000882309F40BC183E891E06BE147E251E0A6
:10145000ACC0813009F06BC080915004882321F02A
:1014600080915204882361F1E0904504FF2400E05C
:1014700010E02091460430E040E050E084EA91E042
:1014800060E0E7D6E82FF0E0EC55FE4F2082682FB1
:101490006F5F5AE0E516F1040105110534F4E62FFB
:1014A000F0E0EC55FE4F60826F5F84EA91E0A801A6
:1014B0009701CFD6682F84EA91E049E251E06FD7D7
:1014C00020914F0430E040E050E084EA91E068E091
:1014D0000BE211E084D78091CA039091CB03209155
:1014E000EA033091EB03821B930B6EE48032960784
:1014F00064F44091C6035091C7036091C803709192
:10150000C90384EA91E020E028DA8091D00388239F
:1015100041F02091D10330E040E050E084EA91E0D6
:1015200030C084EA91E06BE14DE251E03EC0823090
:1015300051F58091E103882351F48091520488236E
:1015400031F085EC91E06AE04FE251E028D720913C
:10155000D2033091D30340E050E085EC91E060E0AD
:1015600078D62091CA033091CB038091EA03909101
:10157000EB03281B390B442737FD4095542F85EC8E
:1015800091E06BE16AC0833091F480916F01882310
:1015900009F064C086EE91E060E04BE351E0FFD6D5
:1015A00086EE91E06BE140E451E0F9D657C084301B
:1015B00031F487E092E060E045E451E0F6CF8091BD
:1015C000E103882369F488E292E060E04FE451E0AF
:1015D000E6D688E292E065E04DE251E0E0D612C046
:1015E00088E292E060E04FE451E0D9D620913704E0
:1015F000309138044091390450913A0488E292E0E5
:1016000065E027D688E292E06AE044E551E0C7D67B
:101610008091DD038A3020F4609243026CE101C0C6
:101620006BE12091DD0330E040E050E088E292E0A1
:1016300007E511E0D4D6682F8091DC038A3030F4BE
:10164000E62FF0E0E85DFD4F60826F5F2091DC03E4
:1016500030E040E050E088E292E0FBD50894A11C25
:10166000B11C81E290E0C80ED91E96E0A916B10423
:1016700029F429E633E080E090E016C0F50185E02A
:10168000EE0FFF1F8A95E1F7EA0DFB1DED57FE4FA8
:10169000A0CE1192E217F307E1F701969F01285EB1
:1016A0003F4F8330910569F0FC01EE0FFF1FE80FFB
:1016B000F91F13E0EE0FFF1F1A95E1F7EF5AFC4FE9
:1016C000E8CFE0903B04F0903C048091D4039091EB
:1016D000D503E81AF90A8BE0F1D68091370490918E
:1016E0003804A0913904B0913A048A309105A105DB
:1016F000B10518F482E0E2D61CCA8091D203909121
:10170000D3038330910520F08091A903882351F4FD
:1017100085E065E041E121E155D785E061E141E106
:1017200025E051C0C701865A9F4FCED4082FC7016C
:10173000CBD4E82F402F552747FD5095B3E0440FF9
:10174000551FBA95E1F724E630E0CA01B901D3D1BB
:101750008B018E2F992787FD9095A3E0880F991F05
:10176000AA95E1F7B901C7D15B01602FFBE0CF2E4D
:10177000CA0C8BE0E82EE01A655F8A194C2D2E2DDD
:1017800021D7E2E08E2E912CC801B401B4D170951E
:1017900061957F4F462F455FC501B401ACD170956F
:1017A00061957F4F262F255F8C2D6E2D0BD7C8019D
:1017B000B401A1D1462F455FC501B4019CD1262FAC
:1017C000255F8C2D6E2DFED6B4C91F920F920FB6D9
:1017D0000F9211242F933F934F935F936F937F93B7
:1017E0008F939F93AF93BF93EF93FF9310928500D6
:1017F0001092840088E28A95F1F780917A019091A5
:101800007B014A99F2C0009709F47FC080917D0165
:10181000813021F0823009F078C04AC090917E0179
:10182000E8E1EA95F1F7292F30E0F90175E0EE0FD4
:10183000FF1F7A95E1F7E20FF31FED57FE4FA091DE
:10184000820181E2A89FD0011124A75BBD4F989F20
:10185000C00111248C559E4F2191203221F022236A
:1018600011F0219A02C0219800002D912EBD000098
:101870000000000000000000000000000000000068
:101880000000000000000000000000000000000058
:10189000E817F90709F70000000000000000000049
:1018A000000000000000000000001EBC21982DC0B8
:1018B00083E191E00197F1F700C00000E09182011F
:1018C000F0E0EF5AFC4F83E090819EBD219A00002A
:1018D0000000000000000000000000000000000008
:1018E00000000000000000000000000000000000F8
:1018F0000000000000000000000000008150789609
:10190000882311F7219800001EBC10927D01809160
:101910007A0190917B01019690937B0180937A01EB
:101920008E36910511F421E004C08F36910519F42B
:1019300022E020937F012091800130918101821764
:101940009307A0F04091590150915A0184179507CF
:1019500068F441E040937D01821B80938201909165
:101960005B01923009F048C0869531C02091590141
:1019700030915A018217930769F582E080937F01C5
:1019800080917E0190E0019666E070E0B4D0809393
:101990007E01FC01EE0FFF1FE45AFE4F20813181D2
:1019A000309381012093800188599E4FFC018081F2
:1019B00080935B0190E053E0880F991F5A95E1F7FF
:1019C000820F931F90935A018093590181E0809375
:1019D000820112C09C01295630402831310560F443
:1019E00022E020937D018956F2CF893C910520F0B9
:1019F00010927B0110927A01FF91EF91BF91AF910C
:101A00009F918F917F916F915F914F913F912F9116
:101A10000F900FBE0F901F9018951F920F920FB648
:101A20000F9211242F933F938F939F9380917A016C
:101A300090917B0120917C0130E02817390721F437
:101A40002BB138E023272BB980937C019F918F9194
:101A50003F912F910F900FBE0F901F901895629F8E
:101A6000D001739FF001829FE00DF11D649FE00D96
:101A7000F11D929FF00D839FF00D749FF00D659FF7
:101A8000F00D9927729FB00DE11DF91F639FB00DF6
:101A9000E11DF91FBD01CF0111240895991B79E0C3
:101AA00004C0991F961708F0961B881F7A95C9F7EE
:101AB0008095089587FB082E062687FD819567FD92
:101AC0006195ECDF0EF4919507FC81950895AA1BB2
:101AD000BB1B51E107C0AA1FBB1FA617B70710F019
:101AE000A61BB70B881F991F5A95A9F7809590954B
:101AF000BC01CD01089597FB092E07260AD077FD7A
:101B000004D0E5DF06D000201AF4709561957F4F70
:101B10000895F6F7909581959F4F0895A1E21A2EAA
:101B2000AA1BBB1BFD010DC0AA1FBB1FEE1FFF1F81
:101B3000A217B307E407F50720F0A21BB30BE40BD1
:101B4000F50B661F771F881F991F1A9469F7609518
:101B50007095809590959B01AC01BD01CF010895D2
:101B600097FB092E05260ED057FD04D0D7DF0AD0EB
:101B7000001C38F450954095309521953F4F4F4FBC
:101B80005F4F0895F6F790958095709561957F4F1A
:101B90008F4F9F4F0895FB01DC014150504030F0C2
:101BA0008D910190801919F40020B9F7881B990BC9
:101BB0000895FB01DC014150504048F001900D9226
:101BC0000020C9F701C01D9241505040E0F7089530
:101BD000DC01CB01FC01F999FECF06C0F2BDE1BDED
:101BE000F89A319600B40D9241505040B8F70895DC
:041BF000F894FFCF97
:101BF4004750474741004750524D43004E00530061
:101C0400450057002D2D2E2D2D2D2D2D2D2D3F0032
:101C14002E006A310069006800560025002D004E30
:101C24004F20484F4D4520504F53004B4D2F4800F7
:101C34004D542020004650564C522E434F4D0044E4
:101C4400495354004D54003A00020002320042004D
:101C5400AA00CD00FF001801010102010101FF01EA
:0A1C6400FF0101010101010601006A
:00000001FF
