S00E0000636C2D6F73642E73726563D4
S113000047C04BC560C05FC05EC05DC05CC05BC024
S11300105AC059C058C057C056C070C654C053C007
S113002052C051C050C04FC04EC04DC04CC04BC058
S11300304AC049C00002030507090A0C0E10111337
S11300401516181A1C1D1F2122242527292A2C2D98
S11300502F303234353638393B3C3E3F40424344FE
S1130060454748494A4B4D4E4F50515253545556AB
S1130070575758595A5B5B5C5D5D5E5F5F606061BA
S113008061616262626363636364646464646400A0
S113009011241FBECFEFD4E0DEBFCDBF11E0A0E03E
S11300A0B1E0E0E9FCE102C005900D92AC36B10785
S11300B0D9F714E0ACE6B1E001C01D92A634B10753
S11300C0E1F740D6E3CD9CCF68E671E04EDD843B9A
S11300D0910520F0845B90404FEF01C041E08A35E8
S11300E0910530F024EB30E0B901681B790BCB01AA
S11300F0FC01EC5CFF4F8491849F802D11240895B2
S11301004F925F926F927F928F929F92AF92BF9223
S1130110CF92DF92EF92FF921F93CF93DF9300D0A1
S113012000D0CDB7DEB76B017C0197FF0AC0F09415
S1130130E094D094C094C11CD11CE11CF11C1FEFAD
S113014001C011E0C701B60120E432E44FE050E001
S113015055DD422E552466247724C701B60120E1DB
S113016037E240E050E04ADD69837A838B839C83E5
S1130170C301B2012CE330E040E050E0BEDC4B01AF
S11301805C01C301B20120EC3DEB40EF5FEFB5DC55
S11301906C0D7D1D8E1D9F1D20E137E240E050E077
S11301A02DDD820E911CA11CB11CC501B4012CE3F0
S11301B030E040E050E0A1DC6B017C0169817A8190
S11301C08B819C819ADC4B015C01C701B60124E65A
S11301D030E040E050E091DC6B017C01C501B401EA
S11301E0EBDCC20ED31EE41EF51E1F3F41F4F09457
S11301F0E094D094C094C11CD11CE11CF11CC70133
S1130200B6010F900F900F900F90DF91CF911F9137
S1130210FF90EF90DF90CF90BF90AF909F908F9022
S11302207F906F905F904F9008953F924F925F92AE
S11302306F927F928F929F92AF92BF92CF92DF92F2
S1130240EF92FF920F931F93CF93DF932C01362EDF
S113025069017A0189019A01F7FE07C00027112775
S113026098010C191D092E093F09C1E09AE0892E55
S1130270912CA12CB12C08C0C901B801A50194018D
S1130280BDDC89019A01CF5F0A30110521053105D2
S11302909CF7F7FCCF5F832D90E09C012C0F311D60
S11302A0213231050CF056C04201880E991EF7FE2A
S11302B00AC0F094E094D094C094C11CD11CE11CF9
S11302C0F11CDFEF01C0D0E0540100E08AE0482EC9
S11302D0512C612C712C01C0022FC701B601A3015E
S11302E092018CDC69017A01605DF50161935F0123
S11302F0202F2F5F1C141D041E041F046CF3DF3F0A
S113030049F4E22FFF27E7FDF095E80DF91D8DE292
S113031080832F5FE22FFF27E7FDF095E80DF91D9D
S113032010822150522F569540E030E0842F90E007
S1130330F401E80FF91F6081D901A81BB90BA80DBE
S1130340B91D8C9180836C934F5F541778F78C2F71
S1130350830D01C081E2DF91CF911F910F91FF9036
S1130360EF90DF90CF90BF90AF909F908F907F9051
S11303706F905F904F903F900895CF93DF93DC018F
S1130380D62FBA01FA0101900020E9F73197CE2F58
S1130390C41B2D2F30E0C9018C0F911D81329105B2
S11303A00CF0C1E24C2F50E0CD01820F931F4FDCC3
S11303B08C2F8D0FDF91CF9108954F925F926F92A2
S11303C07F928F929F92AF92BF92CF92DF92EF92E1
S11303D0FF920F931F93CF93DF933C01C62F6901C4
S11303E07A01D02F211531054105510519F448E052
S11303F051E07FC0002351F01216130614061506AF
S11304007CF4F6E04F2EF1E05F2E13C012161306B3
S11304101406150654F4E4E04E2EE1E05E2E09C005
S113042070E0472E71E0572E04C062E0462E61E072
S1130430562EF7FE08C0F094E094D094C094C11CEA
S1130440D11CE11CF11CC701B60120E432E44FE0E9
S113045050E0D4DB822E9924AA24BB24C501B40124
S113046020EC3DEB40EF5FEF48DB6C0D7D1D8E1DF6
S11304709F1D24E630E040E050E03FDB2CE330E019
S113048040E050E099DB89019A01DD2339F056EE12
S1130490C52E54E1D52EE12CF12C06C040E9C42E22
S11304A04AE1D42EE12CF12CC00ED11EE21EF31E23
S11304B0C3016C2FA5019401B8DE682FC30144E188
S11304C051E05BDF682F80E1C81687E2D80680E040
S11304D0E80680E0F80630F4C30120E030E0A9012A
S11304E0A4DE682FC301A70196019FDE682FC30114
S11304F0A20143DFDF91CF911F910F91FF90EF9005
S1130500DF90CF90BF90AF909F908F907F906F902F
S11305105F904F900895FF920F931F93CF93DF93B3
S1130520D1E08091CE038D3209F0D0E0CD2F00E0F0
S113053010E0980116C0C901B8012AE030E040E09B
S113054050E0DBDADC01CB010F2D10E0005310404A
S1130550222717FD2095322F080F191F2A1F3B1F32
S1130560CF5FEC2FF0E0E253FC4FF0808F2D8053EF
S11305708A3010F4CB30F8F2DD2321F06FEF7FEFF7
S1130580CB0104C061E070E080E090E0A901980133
S1130590B4DADF91CF911F910F91FF900895FF92EC
S11305A00F931F93CF93DF93FF24F3948091CE0393
S11305B08D3209F0FF24CF2D00E010E09801EC2FDC
S11305C0F0E0E253FC4FD0818D2F80538A3058F5F0
S11305D0C901B8012AE030E040E050E08EDADC01E5
S11305E0CB010D2F10E000531040222717FD20955A
S11305F0322F080F191F2A1F3B1FCF5FCB30F8F291
S1130600FF2021F06FEF7FEFCB0104C061E070E0C9
S113061080E090E0A901980170DADF91CF911F91F9
S11306200F91FF900895DE3241F3EACF8091CC031D
S1130630882301F58EEC93E066E171E045E050E03B
S1130640F8DA009731F481E08093CC0310925801DA
S113065008958EEC93E06CE171E045E050E0E9DA56
S1130660009709F00DC182E08093CC0384E6809367
S1130670580108958091CB03882309F401C1809126
S11306805801853609F43FC08636E0F4843009F415
S113069067C0853050F4823009F441C0833008F0DB
S11306A042C0813009F0ECC02EC0863009F479C014
S11306B0863008F459C0873009F479C0893009F0CC
S11306C0DFC07BC08A3609F44FC08B3648F48836C5
S11306D051F1893608F044C0873609F0D1C01FC0F3
S11306E08C3609F486C08C3608F46FC08D3609F454
S11306F088C0883C09F0C4C0EEECF3E080E090E0F0
S1130700DC0120E0B1C007DFDC01CB0180937D0177
S113071090937E01A0937F01B093800108953FDF01
S1130720DC01CB0114C08091CE03833509F0A8C04D
S11307308091730190917401A0917501B09176013B
S1130740B095A095909581959F4FAF4FBF4F8093E3
S1130750730190937401A0937501B0937601089589
S11307601EDFDC01CB0114C08091CE03873509F074
S113077087C08091770190917801A0917901B0911F
S11307807A01B095A095909581959F4FAF4FBF4F3B
S11307908093770190937801A0937901B0937A01C3
S11307A00895B9DEDC01CB01809381010895B3DEA5
S11307B0DC01CB01809382010895ADDEDC01CB0125
S11307C090937C0180937B010895A5DEAB01BC016D
S11307D02FEC31E0429FC001439F900D529F900D3A
S11307E011246AEF70E0C1D970938401609383018E
S11307F0089591DEDC01CB019093860180938501FD
S1130800089589DEDC01CB018093870190938801F0
S1130810A0938901B0938A01089534E0880F991F49
S1130820AA1FBB1F3A95D1F7342F3154363020F428
S113083050E0475350400FC0342F3156363020F427
S113084050E04755504007C0342F30533A3058F4E5
S113085050E040535040662757FD6095762F840F33
S1130860951FA61FB71F2F5F4191442311F02B3012
S1130870A1F621E03091CD03381320E020938B01C1
S11308800895883108F56831F8F4482F469546955F
S1130890469550E08095877021E030E002C0220F39
S11308A0331F8A95E2F7FA01EE0FFF1FE40FF51FDD
S11308B0A3E0EE0FFF1FAA95E1F7E60FF11DE25248
S11308C0FC4F8081822B80830895CF92DF92EF9238
S11308D0FF920F931F93CF93DF93382FA62FC42F2C
S11308E0422F50E0461B510957FF03C050954195D4
S11308F05F4FEC2FF0E0E31BF109F7FF03C0F09525
S1130900E195FF4FD1E0E417F50714F0D0E006C0FD
S11309108C2FC22F282F832F3A2FA82FC31730F4E0
S11309208A2FA22F282F832F3C2FC82F1C2F131B55
S1130930E22FF0E0EA1BF109F7FF03C0F095E1951F
S1130940FF4F0E2F812F62E003D9F82EDA2EA21763
S113095018F4CC24C39402C0CC24CA94E32E0EC051
S1130960DD2319F08D2D6E2D02C08E2D6D2D89DFA6
S1130970F01AF7FE02C0DC0CF10EE394CE1580F7FA
S1130980DF91CF911F910F91FF90EF90DF90CF9067
S11309900895FF920F931F93CF93DF9300D000D05D
S11309A00F92CDB7DEB7182F81E0982F911B9D834E
S11309B08C83812F8195880F8B831A821983BBE0E6
S11309C0FB2EF10E8BE06F2D5CDF0BE0011B8BE047
S11309D0602F57DF8F2D6BE054DF802F6BE051DFEA
S11309E01BE04BC08D8187FD0AC0898181508983BA
S11309F08B818E5F8B839D818B81890F8D838A810F
S1130A008F5F8A838C818E5F8C839D818C81890F1B
S1130A108D838A816981655F855F33DF8A8169811E
S1130A20655F912F981B892F2CDF8A819981612F13
S1130A30691B855F26DF8A819981612F691B912F4C
S1130A40981B892F1EDF89816A81655F855F19DFA5
S1130A5089816A81655F912F981B892F12DF8981B3
S1130A609A81612F691B855F0CDF89819A81612FCF
S1130A70691B912F981B892F04DF9A81898198170C
S1130A800CF4B0CF0F900F900F900F900F90DF9158
S1130A90CF911F910F91FF9008951F920F920FB65F
S1130AA00F9211242F933F934F935F936F937F93F0
S1130AB08F939F93AF93BF93EF93FF93109285000F
S1130AC01092840088E28A95F1F780914104909114
S1130AD042044A99FBC0009709F48CC080914304F6
S1130AE0813021F0823009F085C053C02091B001DB
S1130AF098E19A95F1F78091440490E0BC0155E0A7
S1130B00660F771F5A95E1F7680F791F80E090E030
S1130B1030E0A901E5E0440F551FEA95E1F7420FE3
S1130B20531F4F545E4F6F537D4FFA01E80FF91F67
S1130B302081203221F0222311F0219A02C0219831
S1130B400000FB01E80FF91F20812EBD000000000A
S1130B500000000000000000000000000000000091
S1130B6000000000000000000000000000000196EA
S1130B708132910509F0D9CF000000000000000087
S1130B800000000000000000000000001EBC2198CE
S1130B9031C0E3E1F1E03197F1F700C000002091AA
S1130BA0440430E080E090E022523C4FF901E80F29
S1130BB0F91F40814EBD219A000000000000000092
S1130BC00000000000000000000000000000000021
S1130BD00000000000000000000000000000000011
S1130BE0000000000000489688349105F9F6219829
S1130BF000001EBC109243044091410450914204F1
S1130C00CA01019690934204809341048E36910563
S1130C1011F421E004C08F36910519F422E02093E9
S1130C206C016091C9037091CA03209162013091F3
S1130C3063018617970780F08217930768F491E0A1
S1130C4090934304861B80934404909164019230F2
S1130C5009F043C086952DC08217930769F582E099
S1130C6080936C018091B00190E0019666E070E0A1
S1130C7090D78093B001FC01EE0FFF1FE45BFE4FA1
S1130C80208131813093CA032093C9038B599E4F2D
S1130C90FC0180818093640190E043E0880F991FF8
S1130CA04A95E1F7820F931F909363018093620149
S1130CB081E08093440411C04856504048315105A6
S1130CC060F492E0909343048956F3CF893C9105F4
S1130CD020F01092420410924104FF91EF91BF91D1
S1130CE0AF919F918F917F916F915F914F913F91C0
S1130CF02F910F900FBE0F901F9018951F920F9277
S1130D000FB60F9211242F933F938F939F932091AB
S1130D10450430E08091410490914204281739073A
S1130D2021F48BB198E089278BB980914104809399
S1130D3045049F918F913F912F910F900FBE0F907B
S1130D401F901895CF93DF93CDB7DEB762970FB698
S1130D50F894DEBF0FBECDBF20E12BB988E08AB97D
S1130D6029988CE084B980916F00816080936F0032
S1130D708091810082608093810083E08093690088
S1130D8031E03DBB80E880BF10927B001EBC8DB576
S1130D908E7F8DBD84E58CBDE091B001F0E0EE0F57
S1130DA0FF1FE45BFE4F808191819093CA0380937F
S1130DB0C90310927E0080917C00806480937C0043
S1130DC080917A00866080937A0010927B00309341
S1130DD0C50087E38093C40086E08093C20020931B
S1130DE0C10078948091C00087FF95C00091C6002F
S1130DF0909158019F3F21F4043209F08CC010C037
S1130E00043271F0053230F40A3099F10D3009F0F2
S1130E106FC02FC00A32C1F00C3209F069C00FC094
S1130E201092CB031092CC031092CD031092580170
S1130E30EEECF3E08BE011928150E9F76CC0809105
S1130E40CD0380278093CD03F1DBEEECF3E08BE060
S1130E5011928150E9F71092CB03809158018F5F72
S1130E60809358010A3209F056C088EC80935801E7
S1130E7052C0DCDB4FEF4093580120917B0130914D
S1130E807C0180919E0190919F018217930724F425
S1130E9081E08093D90308C0281739071CF44093D4
S1130EA0D90302C01092D90380918B01882399F150
S1130EB0A6E9B1E0E3E7F1E089E101900D92815008
S1130EC0E1F781E08093DA0380916E0190916F01E4
S1130ED09093DC038093DB038091A6019091A7019A
S1130EE083309105C0F0109259011092DD0313C0B4
S1130EF08091CB03E82FF0E0E253FC4F0083983C51
S1130F0029F09091CD0390279093CD038A3018F463
S1130F108F5F8093CB034C9925C081E0809371014E
S1130F2080917201833330F1109272015B9A809147
S1130F308B018823F9F0809181018823D9F0ACE8F2
S1130F40B1E0E6E9F1E08AE001900D928150E1F729
S1130F5081E08093AF011092700110926E011092A3
S1130F606F0108C08091710181115B981092710129
S1130F701092720180916C01823009F084C0109249
S1130F806C018091B001A7E78A2EA2E09A2ED401C9
S1130F9020E030E060E070E090E0AC0115E0440F48
S1130FA0551F1A95E1F7480F591F4F545E4FFA0128
S1130FB0E60FF71F80818032E1F08823D1F08B3572
S1130FC050F4282F30E0F3E0220F331FFA95E1F7B5
S1130FD02852314010C0982F9556993060F4282F2C
S1130FE030E0E3E0220F331FEA95E1F72057314068
S1130FF002C02FEF3FEF2D933D936F5F7F4F613220
S11310007105A9F600E010E078E0E72ECC24CA943C
S1131010D4014D905D904D0180914B01992787FD3E
S113102090958415950569F0BFEF4B16BFEF5B06ED
S113103081F089EB92E0B20148E050E017D640928B
S11310404B01A9EBB2E020E030E0C8018F539D4F83
S113105009C0E9EBF2E0AE2C1192AA94E9F7C09230
S11310604B01EFCF4D91FC01E20FF31F40832F5D45
S11310703F4F41E028303407A9F70F5F1F4F01327B
S1131080110531F6AFCE80916C01813009F0AACE02
S113109010926C0180917101882329F08091720172
S11310A08F5F809372018091700162E345D599232B
S11310B009F0F8C280918101882311F05B9A04C081
S11310C08BB198E089278BB98091AF01882309F40B
S11310D0EFC1C0909601D0909701E0909801F090F4
S11310E0990180909A0190909B01A0909C01B090EE
S11310F09D0189829A82AB82BC8280908C019090FF
S11311008D01A0908E01B0908F01209190013091BB
S1131110910140919201509193012D833E834F831D
S11311205887C814D904EA04FB04B1F489819A816C
S1131130AB81BC8182179307A407B50769F41092A9
S113114028041092290410922A0410922B0410925D
S1131150270410922604ACC1D501C4018C0D9D1D39
S1131160AE1DBF1DB7FF07C0B095A09590958195A2
S11311709F4FAF4FBF4FBC01CD0120E834E84EE193
S113118050E01AD5C901865A9F4F9ED7382EC70101
S1131190B601B6D78B019C01C501B401298B3A8BEA
S11311A0AFD72B013C0169817A818B819C81A8D7BF
S11311B06B017C016D817E818F819885A1D76C192B
S11311C07D098E099F0929893A89401A510A620AC0
S11311D0730A232D332727FD3095432F532F8DD4A6
S11311E024E630E040E050E009D53324339462E053
S11311F0C62ED12CE12CF12C49015A010FC0C50196
S1131200B401A7019601FAD449015A01C301B201FC
S1131210A7019601F3D429013A01330CB501A401C5
S1131220B7FE07C044275527BA01481959096A0966
S11312307B094F3F9FEF590790E0690790E07907DA
S1131240F0F6D301C20177FE07C088279927DC0195
S113125084199509A609B7098F3FEFEF9E07E0E0CF
S1131260AE07E0E0BE0758F689829A82AB82BC8260
S113127049875A876B877C878D879E87AF87B88B12
S1131280C501B401A501940138D46B017C01C301EB
S1131290B201A301920131D4DC01CB0161E0E62F5C
S11312A00FC022E0F694E794D794C7942A95D1F717
S11312B032E0B695A795979587953A95D1F7EE0FB5
S11312C04B2F5527662777270F2D112722273327E2
S11312D0400F511F621F731F4F3F51056105710578
S11312E009F0F8F66E2F4C015D018C0C9D1CAE1CB0
S11312F0BF1C8D829E82AF82B886B694A7949794C1
S1131300879481149104A104B10439F100E010E040
S11313102E2E02C0460157016D817E818F819885F2
S1131320A501940149D469017A01C80CD91CEA1CAD
S1131330FB1CF694E794D794C7948C189D08AE08C8
S1131340BF0822E082169104A104B10458F00F5F93
S11313501F4F0A311105F1F605C0CD80DE80EF8004
S1131360F88401C0622D262F30E040E050E0C70130
S1131370B601C3D36B017C0161157105810591052B
S113138009F46EC089849A84AB84BC842D853E851F
S11313904F85588982169306A406B506D8F0CA016B
S11313A0B90124E630E040E050E0A7D3A70196015C
S11313B003D4022F20E030E0490103C00894811CCB
S11313C0911CC40181D608171CF13AE583169104D7
S11313D0A9F71EC069857A858B859C8524E630E053
S11313E040E050E08AD3A7019601E6D300E010E084
S11313F0822E02C00F5F1F4FC80166D688161CF0EC
S11314000A351105B9F72AE530E0201B310B01C07C
S1131410940189809A80AB80BC804114510461049A
S1131420710429F4B7FC1FC08AE590E01EC01414AF
S11314301504160417044CF4B7FC03C08AE590E0C5
S11314400CC0C901825F9E4F10C0B7FC04C0C90123
S1131450865A9F4F0AC08EE091E0821B930B05C011
S113146080E090E002C08EE091E0909327048093A6
S11314702604C701B60125E331E040E050E03DD346
S113148028EE33E040E050E097D369017A01232D40
S113149030E040E050E0C701B6012FD3DC01CB01BE
S11314A08093280490932904A0932A04B0932B04D6
S11314B099E3292E94E0392E2AE531E03A832983F1
S11314C04EE551E05E834D836FE2E62E64E0F62E36
S11314D080E07AE0472E512C612C712C8D8780910D
S11314E07C00807F80937C0080917C008D8488299F
S11314F080937C0080917A00806A80937A00809146
S11315007A00806480937A009D8580917A0084FFBC
S1131510FCCF9D8780917A00806180937A008091CE
S11315207A008F7580937A006091780070917900C9
S1131530D1016D937D931D0180E090E026E331E0BD
S113154040E050E0DAD2A301920136D3E981FA8176
S11315506191FA83E98370E080E090E0CED2AD81BE
S1131560BE812D91BE83AD8330E040E050E024D3B2
S113157089019A01480159016AE0B694A7949794A5
S113158087946A95D1F789869A86AB86BC8667016B
S11315900894C108D108882D90E0982F8827990FC6
S11315A0990FA0E0B0E048015901881A990AAA0AE3
S11315B0BB0AC501B40124E630E040E050E09DD20E
S11315C0DC01CB01EAE0B695A79597958795EA9556
S11315D0D1F7F6018083E985D701EC93FD85FF5FA0
S11315E0FD8782E0882E912CE80CF91CF43009F078
S11315F076CF80912E0490912F0490932D048093A4
S11316002C049091330484E6989FC0011124209106
S11316103204820F911D21E0853F920798F48937A7
S1131620910598F08857904044E650E0849F9001DB
S1131630859F300D949F300D1124C9016CE771E032
S113164094D205C064E670E002C060E070E060938C
S1131650360490912D0484E6989FC00111242091B2
S11316602C04820F911D21E033E0883E930708F09B
S113167020E020933704109238048091A6019091C1
S1131680A7018330910538F48091DD038A3018F482
S11316908F5F8093DD038091DD038A3019F481E04C
S11316A080935901809170018F5F809370018091C4
S11316B07001823378F01092700180916E018F5F17
S11316C080936E0180916D0190E00196817090701D
S11316D080936D0180916E018C3338F010926E010D
S11316E080916F018F5F80936F0180916F018C33C4
S11316F010F010926F0191EB892E91E0992E10E079
S113170067C1F401E80FF91F108201968132910537
S1131710C1F7112309F066C081EB91E061E042E278
S113172051E02BD680913704882321F080916D01FC
S1131730882371F1C0902E04DD24EE24FF2420912F
S11317402F0430E040E050E081EB91E064E06DD59F
S1131750E82FF0E0EF54FE4F9EE29083682F6F5F16
S11317604AE0C416D104E104F1043CF4E62FF0E0AD
S1131770EF54FE4F90E390836F5F81EB91E0A701FC
S1131780960153D5682F81EB91E045E251E0F5D500
S113179081EB91E06CE047E251E0EFD580918B0161
S11317A0882321F480916D01882339F081EB91E045
S11317B062E149E251E0E1D507C081EB91E062E1E9
S11317C049E251E0DAD582E1682F6E5F20919601FB
S11317D030919701409198015091990181EB91E0EA
S11317E001E06EC0113079F52091360430E040E01C
S11317F050E082ED91E060E018D5682F82ED91E031
S11318004BE251E0BAD58091A401882351F0209194
S1131810A50130E040E050E082ED91E066E005D5BE
S113182006C082ED91E066E04DE251E0A6D520913C
S11318309A0130919B0140919C0150919D0182ED50
S113184091E068E03CC01230A9F4809159018823EA
S113185009F4B3C08091AF01882309F0AEC0809130
S11318606D01882309F4A9C083EF91E06AE04FE297
S113187051E0A2C0133031F580915901882309F455
S11318809CC08091AF01882309F097C020919601F4
S113189030919701409198015091990184E192E02F
S11318A064E001E08AD5682F6E5F20919A0130913F
S11318B09B0140919C0150919D0184E192E000E0E4
S11318C07CD57BC0143009F048C02091A60130912A
S11318D0A70140E050E085E392E060E0A6D4809167
S11318E0AF01882339F485E392E065E04DE251E0ED
S11318F044D50CC0209128043091290440912A0435
S113190050912B0485E392E065E08FD48091A4018B
S1131910882351F02091A50130E040E050E085E3B8
S113192092E067E182D406C085E392E067E14DE28C
S113193051E023D520919E0130919F018091940123
S113194090919501281B390B442737FD4095542F5E
S113195085E392E06CE169D430C086E592E060E012
S11319604BE351E00AD586E592E065E04FE351E0B0
S113197004D59091AF01682F6D5F992329F086E516
S113198092E043E451E004C086E592E045E451E08E
S1131990F4D480918B01882321F480916D018823F4
S11319A031F086E592E067E149E251E0E6D486E56C
S11319B092E06CE147E451E0E0D41F5F81E290E003
S11319C0880E991E163021F42EED33E043E010C04A
S11319D080E090E096CEF901E80FF91F108201969D
S11319E088319105C1F74150285E3F4F442319F0D7
S11319F080E090E0F0CFE0902604F09027048091FE
S1131A00A8019091A901E81AF90A8BE0C2D7809144
S1131A10280490912904A0912A04B0912B048A30BF
S1131A209105A105B10518F482E0B3D7DBC9809113
S1131A30A6019091A7018330910520F08091810146
S1131A40882351F485E065E041E121E13ED785E05A
S1131A5061E141E125E04FC0C701865A9F4F34D36D
S1131A60082FC70131D3E82F802F992787FD909540
S1131A7013E0880F991F1A95E1F724E630E0B901C5
S1131A8088D06B018E2F992787FD909503E0880FEE
S1131A90991F0A95E1F7B9017CD04B016C2D082DF3
S1131AA0055F8BE0E82EEC18655F8819402F2E2D1A
S1131AB00CD782E0482E512CC601B2016AD0709531
S1131AC061957F4F462F455FC401B20162D09B01EF
S1131AD0309521953F4F255F802F6E2DF6D6C60198
S1131AE0B20157D0462F455FC401B20152D0262F10
S1131AF0255F802F6E2DE9D675C9629FD001739F33
S1131B00F001829FE00DF11D649FE00DF11D929F95
S1131B10F00D839FF00D749FF00D659FF00D9927D4
S1131B20729FB00DE11DF91F639FB00DE11DF91FF8
S1131B30BD01CF0111240895991B79E004C0991FB8
S1131B40961708F0961B881F7A95C9F78095089513
S1131B5087FB082E062687FD819567FD6195ECDFDE
S1131B600EF4919507FC81950895AA1BBB1B51E1C6
S1131B7007C0AA1FBB1FA617B70710F0A61BB70BF9
S1131B80881F991F5A95A9F780959095BC01CD019E
S1131B90089597FB092E07260AD077FD04D0E5DFC8
S1131BA006D000201AF4709561957F4F0895F6F7DA
S1131BB0909581959F4F0895A1E21A2EAA1BBB1BF5
S1131BC0FD010DC0AA1FBB1FEE1FFF1FA217B30705
S1131BD0E407F50720F0A21BB30BE40BF50B661F1B
S1131BE0771F881F991F1A9469F7609570958095DF
S1131BF090959B01AC01BD01CF01089597FB092E7F
S1131C0005260ED057FD04D0D7DF0AD0001C38F4C7
S1131C1050954095309521953F4F4F4F5F4F089514
S1131C20F6F790958095709561957F4F8F4F9F4FF4
S1131C300895FB01DC014150504030F08D9101903A
S1131C40801919F40020B9F7881B990B0895FB013A
S1131C50DC014150504048F001900D920020C9F73A
S1131C6001C01D9241505040E0F70895DC01CB01C2
S1131C70FC01F999FECF06C0F2BDE1BDF89A319698
S1131C8000B40D9241505040B8F70895F894FFCF36
S1131C905300570045004E002D2D2E2D2D2D2D2D9A
S1131CA02D2D3F002E004750474741004750524DCD
S1131CB043006A310056006900680025002D004E7B
S1131CC04F20484F4D4520504F5300535044004C33
S1131CD04F530066006700414C5400FF320042003D
S1131CE0AA00CD00FF001801FF010101010101015B
S10F1CF0060102000201010201010100D2
S9030000FC
